{
  "address": "0x5FbDB2315678afecb367f032d93F642f64180aa3",
  "abi": [
    {
      "inputs": [
        {
          "internalType": "string",
          "name": "name_",
          "type": "string"
        },
        {
          "internalType": "string",
          "name": "symbol_",
          "type": "string"
        }
      ],
      "stateMutability": "nonpayable",
      "type": "constructor"
    },
    {
      "inputs": [],
      "name": "ArrayLengthMismatch",
      "type": "error"
    },
    {
      "inputs": [],
      "name": "BlockNumberTooOld",
      "type": "error"
    },
    {
      "inputs": [],
      "name": "CannotMakeChanges",
      "type": "error"
    },
    {
      "inputs": [],
      "name": "CannotUpdateDeadline",
      "type": "error"
    },
    {
      "inputs": [],
      "name": "InvalidBlockNumber",
      "type": "error"
    },
    {
      "inputs": [],
      "name": "InvalidSignature",
      "type": "error"
    },
    {
      "inputs": [],
      "name": "MintNotOpen",
      "type": "error"
    },
    {
      "inputs": [],
      "name": "NoMappedTokenForChip",
      "type": "error"
    },
    {
      "inputs": [],
      "name": "NoMintedTokenForChip",
      "type": "error"
    },
    {
      "inputs": [],
      "name": "SeedingChipDataForExistingToken",
      "type": "error"
    },
    {
      "inputs": [],
      "name": "TotalSupplyReached",
      "type": "error"
    },
    {
      "inputs": [],
      "name": "UpdatingChipForUnsetChipMapping",
      "type": "error"
    },
    {
      "anonymous": false,
      "inputs": [
        {
          "indexed": true,
          "internalType": "address",
          "name": "owner",
          "type": "address"
        },
        {
          "indexed": true,
          "internalType": "address",
          "name": "approved",
          "type": "address"
        },
        {
          "indexed": true,
          "internalType": "uint256",
          "name": "tokenId",
          "type": "uint256"
        }
      ],
      "name": "Approval",
      "type": "event"
    },
    {
      "anonymous": false,
      "inputs": [
        {
          "indexed": true,
          "internalType": "address",
          "name": "owner",
          "type": "address"
        },
        {
          "indexed": true,
          "internalType": "address",
          "name": "operator",
          "type": "address"
        },
        {
          "indexed": false,
          "internalType": "bool",
          "name": "approved",
          "type": "bool"
        }
      ],
      "name": "ApprovalForAll",
      "type": "event"
    },
    {
      "anonymous": false,
      "inputs": [
        {
          "indexed": false,
          "internalType": "uint8",
          "name": "version",
          "type": "uint8"
        }
      ],
      "name": "Initialized",
      "type": "event"
    },
    {
      "anonymous": false,
      "inputs": [
        {
          "indexed": true,
          "internalType": "address",
          "name": "previousOwner",
          "type": "address"
        },
        {
          "indexed": true,
          "internalType": "address",
          "name": "newOwner",
          "type": "address"
        }
      ],
      "name": "OwnershipTransferred",
      "type": "event"
    },
    {
      "anonymous": false,
      "inputs": [
        {
          "indexed": true,
          "internalType": "uint256",
          "name": "tokenId",
          "type": "uint256"
        },
        {
          "indexed": true,
          "internalType": "address",
          "name": "oldChipAddress",
          "type": "address"
        },
        {
          "indexed": true,
          "internalType": "address",
          "name": "newChipAddress",
          "type": "address"
        }
      ],
      "name": "PBTChipRemapping",
      "type": "event"
    },
    {
      "anonymous": false,
      "inputs": [
        {
          "indexed": true,
          "internalType": "uint256",
          "name": "tokenId",
          "type": "uint256"
        },
        {
          "indexed": true,
          "internalType": "address",
          "name": "chipAddress",
          "type": "address"
        }
      ],
      "name": "PBTMint",
      "type": "event"
    },
    {
      "anonymous": false,
      "inputs": [
        {
          "indexed": true,
          "internalType": "address",
          "name": "from",
          "type": "address"
        },
        {
          "indexed": true,
          "internalType": "address",
          "name": "to",
          "type": "address"
        },
        {
          "indexed": true,
          "internalType": "uint256",
          "name": "tokenId",
          "type": "uint256"
        }
      ],
      "name": "Transfer",
      "type": "event"
    },
    {
      "inputs": [],
      "name": "TOTAL_SUPPLY",
      "outputs": [
        {
          "internalType": "uint256",
          "name": "",
          "type": "uint256"
        }
      ],
      "stateMutability": "view",
      "type": "function"
    },
    {
      "inputs": [
        {
          "internalType": "address",
          "name": "to",
          "type": "address"
        },
        {
          "internalType": "uint256",
          "name": "tokenId",
          "type": "uint256"
        }
      ],
      "name": "approve",
      "outputs": [],
      "stateMutability": "nonpayable",
      "type": "function"
    },
    {
      "inputs": [
        {
          "internalType": "address",
          "name": "owner",
          "type": "address"
        }
      ],
      "name": "balanceOf",
      "outputs": [
        {
          "internalType": "uint256",
          "name": "",
          "type": "uint256"
        }
      ],
      "stateMutability": "view",
      "type": "function"
    },
    {
      "inputs": [],
      "name": "baseURI",
      "outputs": [
        {
          "internalType": "string",
          "name": "",
          "type": "string"
        }
      ],
      "stateMutability": "view",
      "type": "function"
    },
    {
      "inputs": [
        {
          "internalType": "bytes32",
          "name": "inputBytes32",
          "type": "bytes32"
        }
      ],
      "name": "bytes32ToString",
      "outputs": [
        {
          "internalType": "string",
          "name": "",
          "type": "string"
        }
      ],
      "stateMutability": "pure",
      "type": "function"
    },
    {
      "inputs": [
        {
          "internalType": "bytes",
          "name": "inputBytes",
          "type": "bytes"
        }
      ],
      "name": "bytesToBytes32",
      "outputs": [
        {
          "internalType": "bytes32",
          "name": "",
          "type": "bytes32"
        }
      ],
      "stateMutability": "pure",
      "type": "function"
    },
    {
      "inputs": [],
      "name": "canMint",
      "outputs": [
        {
          "internalType": "bool",
          "name": "",
          "type": "bool"
        }
      ],
      "stateMutability": "view",
      "type": "function"
    },
    {
      "inputs": [],
      "name": "changeDeadline",
      "outputs": [
        {
          "internalType": "uint256",
          "name": "",
          "type": "uint256"
        }
      ],
      "stateMutability": "view",
      "type": "function"
    },
    {
      "inputs": [],
      "name": "contractType",
      "outputs": [
        {
          "internalType": "bytes32",
          "name": "",
          "type": "bytes32"
        }
      ],
      "stateMutability": "pure",
      "type": "function"
    },
    {
      "inputs": [],
      "name": "contractVersion",
      "outputs": [
        {
          "internalType": "uint8",
          "name": "",
          "type": "uint8"
        }
      ],
      "stateMutability": "pure",
      "type": "function"
    },
    {
      "inputs": [
        {
          "internalType": "uint256",
          "name": "tokenId",
          "type": "uint256"
        }
      ],
      "name": "getApproved",
      "outputs": [
        {
          "internalType": "address",
          "name": "",
          "type": "address"
        }
      ],
      "stateMutability": "view",
      "type": "function"
    },
    {
      "inputs": [],
      "name": "getMaxBlockhashValidWindow",
      "outputs": [
        {
          "internalType": "uint256",
          "name": "",
          "type": "uint256"
        }
      ],
      "stateMutability": "pure",
      "type": "function"
    },
    {
      "inputs": [
        {
          "internalType": "string",
          "name": "name_",
          "type": "string"
        },
        {
          "internalType": "string",
          "name": "symbol_",
          "type": "string"
        }
      ],
      "name": "initialize",
      "outputs": [],
      "stateMutability": "nonpayable",
      "type": "function"
    },
    {
      "inputs": [
        {
          "internalType": "address",
          "name": "owner",
          "type": "address"
        },
        {
          "internalType": "address",
          "name": "operator",
          "type": "address"
        }
      ],
      "name": "isApprovedForAll",
      "outputs": [
        {
          "internalType": "bool",
          "name": "",
          "type": "bool"
        }
      ],
      "stateMutability": "view",
      "type": "function"
    },
    {
      "inputs": [
        {
          "internalType": "uint256",
          "name": "tokenId",
          "type": "uint256"
        },
        {
          "internalType": "bytes",
          "name": "payload",
          "type": "bytes"
        },
        {
          "internalType": "bytes",
          "name": "signature",
          "type": "bytes"
        }
      ],
      "name": "isChipSignatureForToken",
      "outputs": [
        {
          "internalType": "bool",
          "name": "",
          "type": "bool"
        }
      ],
      "stateMutability": "view",
      "type": "function"
    },
    {
      "inputs": [
        {
          "internalType": "bytes",
          "name": "signatureFromChip",
          "type": "bytes"
        },
        {
          "internalType": "uint256",
          "name": "blockNumberUsedInSig",
          "type": "uint256"
        }
      ],
      "name": "mintBellToAlango",
      "outputs": [],
      "stateMutability": "nonpayable",
      "type": "function"
    },
    {
      "inputs": [],
      "name": "name",
      "outputs": [
        {
          "internalType": "string",
          "name": "",
          "type": "string"
        }
      ],
      "stateMutability": "view",
      "type": "function"
    },
    {
      "inputs": [],
      "name": "openMint",
      "outputs": [],
      "stateMutability": "nonpayable",
      "type": "function"
    },
    {
      "inputs": [],
      "name": "owner",
      "outputs": [
        {
          "internalType": "address",
          "name": "",
          "type": "address"
        }
      ],
      "stateMutability": "view",
      "type": "function"
    },
    {
      "inputs": [
        {
          "internalType": "uint256",
          "name": "tokenId",
          "type": "uint256"
        }
      ],
      "name": "ownerOf",
      "outputs": [
        {
          "internalType": "address",
          "name": "",
          "type": "address"
        }
      ],
      "stateMutability": "view",
      "type": "function"
    },
    {
      "inputs": [],
      "name": "renounceOwnership",
      "outputs": [],
      "stateMutability": "nonpayable",
      "type": "function"
    },
    {
      "inputs": [
        {
          "internalType": "address",
          "name": "from",
          "type": "address"
        },
        {
          "internalType": "address",
          "name": "to",
          "type": "address"
        },
        {
          "internalType": "uint256",
          "name": "tokenId",
          "type": "uint256"
        }
      ],
      "name": "safeTransferFrom",
      "outputs": [],
      "stateMutability": "nonpayable",
      "type": "function"
    },
    {
      "inputs": [
        {
          "internalType": "address",
          "name": "from",
          "type": "address"
        },
        {
          "internalType": "address",
          "name": "to",
          "type": "address"
        },
        {
          "internalType": "uint256",
          "name": "tokenId",
          "type": "uint256"
        },
        {
          "internalType": "bytes",
          "name": "data",
          "type": "bytes"
        }
      ],
      "name": "safeTransferFrom",
      "outputs": [],
      "stateMutability": "nonpayable",
      "type": "function"
    },
    {
      "inputs": [
        {
          "internalType": "address[]",
          "name": "chipAddresses",
          "type": "address[]"
        },
        {
          "internalType": "uint256[]",
          "name": "tokenIds",
          "type": "uint256[]"
        },
        {
          "internalType": "bool",
          "name": "throwIfTokenAlreadyMinted",
          "type": "bool"
        }
      ],
      "name": "seedChipToTokenMapping",
      "outputs": [],
      "stateMutability": "nonpayable",
      "type": "function"
    },
    {
      "inputs": [
        {
          "internalType": "address",
          "name": "operator",
          "type": "address"
        },
        {
          "internalType": "bool",
          "name": "approved",
          "type": "bool"
        }
      ],
      "name": "setApprovalForAll",
      "outputs": [],
      "stateMutability": "nonpayable",
      "type": "function"
    },
    {
      "inputs": [
        {
          "internalType": "string",
          "name": "baseURI",
          "type": "string"
        }
      ],
      "name": "setBaseURI",
      "outputs": [],
      "stateMutability": "nonpayable",
      "type": "function"
    },
    {
      "inputs": [
        {
          "internalType": "uint256",
          "name": "timestamp",
          "type": "uint256"
        }
      ],
      "name": "setChangeDeadline",
      "outputs": [],
      "stateMutability": "nonpayable",
      "type": "function"
    },
    {
      "inputs": [],
      "name": "supply",
      "outputs": [
        {
          "internalType": "uint256",
          "name": "",
          "type": "uint256"
        }
      ],
      "stateMutability": "view",
      "type": "function"
    },
    {
      "inputs": [
        {
          "internalType": "bytes4",
          "name": "interfaceId",
          "type": "bytes4"
        }
      ],
      "name": "supportsInterface",
      "outputs": [
        {
          "internalType": "bool",
          "name": "",
          "type": "bool"
        }
      ],
      "stateMutability": "view",
      "type": "function"
    },
    {
      "inputs": [],
      "name": "symbol",
      "outputs": [
        {
          "internalType": "string",
          "name": "",
          "type": "string"
        }
      ],
      "stateMutability": "view",
      "type": "function"
    },
    {
      "inputs": [
        {
          "internalType": "address",
          "name": "chipAddress",
          "type": "address"
        }
      ],
      "name": "tokenIdFor",
      "outputs": [
        {
          "internalType": "uint256",
          "name": "",
          "type": "uint256"
        }
      ],
      "stateMutability": "view",
      "type": "function"
    },
    {
      "inputs": [
        {
          "internalType": "address",
          "name": "chipAddress",
          "type": "address"
        }
      ],
      "name": "tokenIdMappedFor",
      "outputs": [
        {
          "internalType": "uint256",
          "name": "",
          "type": "uint256"
        }
      ],
      "stateMutability": "view",
      "type": "function"
    },
    {
      "inputs": [
        {
          "internalType": "uint256",
          "name": "tokenId",
          "type": "uint256"
        }
      ],
      "name": "tokenURI",
      "outputs": [
        {
          "internalType": "string",
          "name": "",
          "type": "string"
        }
      ],
      "stateMutability": "view",
      "type": "function"
    },
    {
      "inputs": [
        {
          "internalType": "address",
          "name": "from",
          "type": "address"
        },
        {
          "internalType": "address",
          "name": "to",
          "type": "address"
        },
        {
          "internalType": "uint256",
          "name": "tokenId",
          "type": "uint256"
        }
      ],
      "name": "transferFrom",
      "outputs": [],
      "stateMutability": "nonpayable",
      "type": "function"
    },
    {
      "inputs": [
        {
          "internalType": "address",
          "name": "newOwner",
          "type": "address"
        }
      ],
      "name": "transferOwnership",
      "outputs": [],
      "stateMutability": "nonpayable",
      "type": "function"
    },
    {
      "inputs": [
        {
          "internalType": "bytes",
          "name": "signatureFromChip",
          "type": "bytes"
        },
        {
          "internalType": "uint256",
          "name": "blockNumberUsedInSig",
          "type": "uint256"
        }
      ],
      "name": "transferTokenWithChip",
      "outputs": [],
      "stateMutability": "nonpayable",
      "type": "function"
    },
    {
      "inputs": [
        {
          "internalType": "bytes",
          "name": "signatureFromChip",
          "type": "bytes"
        },
        {
          "internalType": "uint256",
          "name": "blockNumberUsedInSig",
          "type": "uint256"
        },
        {
          "internalType": "bool",
          "name": "useSafeTransferFrom",
          "type": "bool"
        }
      ],
      "name": "transferTokenWithChip",
      "outputs": [],
      "stateMutability": "nonpayable",
      "type": "function"
    },
    {
      "inputs": [
        {
          "internalType": "address[]",
          "name": "chipAddressesOld",
          "type": "address[]"
        },
        {
          "internalType": "address[]",
          "name": "chipAddressesNew",
          "type": "address[]"
        }
      ],
      "name": "updateChips",
      "outputs": [],
      "stateMutability": "nonpayable",
      "type": "function"
    }
  ],
  "transactionHash": "0x6dc1044920d4c32982f51ef5f5b569e4713937a953160028962d4bd7a62d08cd",
  "args": [
    "BellToAlango",
    "BTA"
  ],
  "numDeployments": 1,
  "solcInputHash": "7a9624e95822009f31c4e29e1604cb79",
  "bytecode": "0x60806040523480156200001157600080fd5b5060405162003025380380620030258339810160408190526200003491620005e7565b62000040828262000048565b50506200068d565b600054610100900460ff1615808015620000695750600054600160ff909116105b8062000099575062000086306200017860201b62000e861760201c565b15801562000099575060005460ff166001145b620000f15760405162461bcd60e51b815260206004820152602e602482015260008051602062002fe583398151915260448201526d191e481a5b9a5d1a585b1a5e995960921b60648201526084015b60405180910390fd5b6000805460ff19166001179055801562000115576000805461ff0019166101001790555b6200012c83836200018760201b62000e951760201c565b801562000173576000805461ff0019169055604051600181527f7f26b83ff96e1f2b6a682f133852f6798a09c465da95921460cefb38474024989060200160405180910390a15b505050565b6001600160a01b03163b151590565b600054610100900460ff1615808015620001a85750600054600160ff909116105b80620001d85750620001c5306200017860201b62000e861760201c565b158015620001d8575060005460ff166001145b6200022c5760405162461bcd60e51b815260206004820152602e602482015260008051602062002fe583398151915260448201526d191e481a5b9a5d1a585b1a5e995960921b6064820152608401620000e8565b6000805460ff19166001179055801562000250576000805461ff0019166101001790555b6200025c838362000266565b6200012c620002d2565b600054610100900460ff16620002c25760405162461bcd60e51b815260206004820152602b60248201526000805160206200300583398151915260448201526a6e697469616c697a696e6760a81b6064820152608401620000e8565b620002ce82826200033a565b5050565b600054610100900460ff166200032e5760405162461bcd60e51b815260206004820152602b60248201526000805160206200300583398151915260448201526a6e697469616c697a696e6760a81b6064820152608401620000e8565b62000338620003c1565b565b600054610100900460ff16620003965760405162461bcd60e51b815260206004820152602b60248201526000805160206200300583398151915260448201526a6e697469616c697a696e6760a81b6064820152608401620000e8565b8151620003ab90606590602085019062000474565b5080516200017390606690602084019062000474565b600054610100900460ff166200041d5760405162461bcd60e51b815260206004820152602b60248201526000805160206200300583398151915260448201526a6e697469616c697a696e6760a81b6064820152608401620000e8565b6200033833609780546001600160a01b038381166001600160a01b0319831681179093556040519116919082907f8be0079c531659141344cd1fd0a4f28419497f9722a3daafe3b4186f6b6457e090600090a35050565b828054620004829062000651565b90600052602060002090601f016020900481019282620004a65760008555620004f1565b82601f10620004c157805160ff1916838001178555620004f1565b82800160010185558215620004f1579182015b82811115620004f1578251825591602001919060010190620004d4565b50620004ff92915062000503565b5090565b5b80821115620004ff576000815560010162000504565b634e487b7160e01b600052604160045260246000fd5b600082601f8301126200054257600080fd5b81516001600160401b03808211156200055f576200055f6200051a565b604051601f8301601f19908116603f011681019082821181831017156200058a576200058a6200051a565b81604052838152602092508683858801011115620005a757600080fd5b600091505b83821015620005cb5785820183015181830184015290820190620005ac565b83821115620005dd5760008385830101525b9695505050505050565b60008060408385031215620005fb57600080fd5b82516001600160401b03808211156200061357600080fd5b620006218683870162000530565b935060208501519150808211156200063857600080fd5b50620006478582860162000530565b9150509250929050565b600181811c908216806200066657607f821691505b6020821081036200068757634e487b7160e01b600052602260045260246000fd5b50919050565b612948806200069d6000396000f3fe608060405234801561001057600080fd5b50600436106102325760003560e01c80638da5cb5b11610130578063beb9716d116100b8578063d30d520c1161007c578063d30d520c14610485578063d67d13ad14610498578063dcf960ee146104ab578063e985e9c5146104be578063f2fde38b146104d457600080fd5b8063beb9716d14610428578063bfe370d914610435578063c7e460ba1461044a578063c87b56dd1461045d578063cb2ef6f71461047057600080fd5b8063a0a8e460116100ff578063a0a8e460146103e9578063a22cb465146103f8578063b88d4fde1461040b578063ba70316f14610419578063bce6d6721461042057600080fd5b80638da5cb5b146103b5578063902d55a5146103c65780639201de55146103ce57806395d89b41146103e157600080fd5b806342842e0e116101be5780636b953dd8116101825780636b953dd8146103765780636c0360eb1461038957806370a0823114610391578063715018a6146103a45780637fd5e831146103ac57600080fd5b806342842e0e146103175780634b5f42ea1461032a5780634cd88b761461033d57806355f804b3146103505780636352211e1461036357600080fd5b806308daee361161020557806308daee36146102b6578063095ea7b3146102c957806323b872dd146102de57806329760b40146102f15780634215e6e11461030457600080fd5b806301ffc9a714610237578063047fc9aa1461025f57806306fdde0314610276578063081812fc1461028b575b600080fd5b61024a610245366004612067565b6104e7565b60405190151581526020015b60405180910390f35b61026860ca5481565b604051908152602001610256565b61027e610512565b60405161025691906120dc565b61029e6102993660046120ef565b6105a4565b6040516001600160a01b039091168152602001610256565b6102686102c4366004612124565b6105dc565b6102dc6102d736600461213f565b610610565b005b6102dc6102ec366004612169565b610662565b6102dc6102ff3660046120ef565b6106b9565b6102dc6103123660046121e6565b6106e7565b6102dc610325366004612169565b61083d565b61024a6103383660046122d3565b610898565b6102dc61034b36600461233f565b610938565b6102dc61035e3660046123a2565b610a06565b61029e6103713660046120ef565b610a1a565b610268610384366004612124565b610a4f565b61027e610aae565b61026861039f366004612124565b610abd565b6102dc610b43565b61026860cb5481565b6097546001600160a01b031661029e565b610268600981565b61027e6103dc3660046120ef565b610b57565b61027e610c48565b60405160018152602001610256565b6102dc6104063660046123f3565b610c57565b6102dc610325366004612426565b60fa610268565b6102dc610cb3565b60cc5461024a9060ff1681565b61026861044336600461248d565b6020015190565b6102dc610458366004612505565b610cca565b61027e61046b3660046120ef565b610d48565b6b42656c6c546f416c616e676f60a01b610268565b6102dc610493366004612585565b610dae565b6102dc6104a63660046121e6565b610df8565b6102dc6104b93660046125f0565b610e01565b61024a6104cc36600461264c565b600092915050565b6102dc6104e2366004612124565b610e0d565b60006001600160e01b03198216634901df9f60e01b148061050c575061050c82610f20565b92915050565b60606065805461052190612676565b80601f016020809104026020016040519081016040528092919081815260200182805461054d90612676565b801561059a5780601f1061056f5761010080835404028352916020019161059a565b820191906000526020600020905b81548152906001019060200180831161057d57829003601f168201915b5050505050905090565b60006105af82610f70565b6105d45760405162461bcd60e51b81526004016105cb906126b0565b60405180910390fd5b506000919050565b6000806105e883610a4f565b90506105f381610f70565b61050c57604051631d240ff960e21b815260040160405180910390fd5b60405162461bcd60e51b815260206004820152602160248201527f455243373231207075626c696320617070726f7665206e6f7420616c6c6f77656044820152601960fa1b60648201526084016105cb565b60405162461bcd60e51b815260206004820152602660248201527f455243373231207075626c6963207472616e7366657246726f6d206e6f7420616044820152651b1b1bddd95960d21b60648201526084016105cb565b6106c1610f8d565b60cb54156106e257604051636eade3f360e11b815260040160405180910390fd5b60cb55565b60cc5460ff1661070a5760405163951b974f60e01b815260040160405180910390fd5b600960ca540361072d57604051637be9badb60e01b815260040160405180910390fd5b61073633610fe7565b61073f8161102f565b60003361074d6001436126fd565b60405160609290921b6bffffffffffffffffffffffff1916602083015240603482015260540160408051601f198184030181529082905280516020918201207f19457468657265756d205369676e6564204d6573736167653a0a33320000000091830191909152603c820152605c0160405160208183030381529060405280519060200120905060006108168286868080601f01602080910402602001604051908101604052809392919081815260200183838082843760009201919091525061107492505050565b905061082181610fe7565b61082c858585611090565b505060ca8054600101905550505050565b60405162461bcd60e51b815260206004820152602a60248201527f455243373231207075626c696320736166655472616e7366657246726f6d206e6044820152691bdd08185b1b1bddd95960b21b60648201526084016105cb565b60006108a384610f70565b6108c057604051631d240ff960e21b815260040160405180910390fd5b60006108d284805190602001206110f1565b905060006108e08285611074565b6001600160a01b038116600090815260c96020526040902060010154909150600160a01b900460ff16801561092c57506001600160a01b038116600090815260c9602052604090205486145b925050505b9392505050565b600054610100900460ff16158080156109585750600054600160ff909116105b806109725750303b158015610972575060005460ff166001145b61098e5760405162461bcd60e51b81526004016105cb90612714565b6000805460ff1916600117905580156109b1576000805461ff0019166101001790555b6109bb8383610e95565b8015610a01576000805461ff0019169055604051600181527f7f26b83ff96e1f2b6a682f133852f6798a09c465da95921460cefb38474024989060200160405180910390a15b505050565b610a0e610f8d565b610a0160cd8383611f44565b6000818152606760205260408120546001600160a01b03168061050c5760405162461bcd60e51b81526004016105cb906126b0565b6001600160a01b038116600090815260c96020526040812060010154600160a01b900460ff16610a9257604051630239974760e01b815260040160405180910390fd5b506001600160a01b0316600090815260c9602052604090205490565b6060610ab8611144565b905090565b60006001600160a01b038216610b275760405162461bcd60e51b815260206004820152602960248201527f4552433732313a2061646472657373207a65726f206973206e6f7420612076616044820152683634b21037bbb732b960b91b60648201526084016105cb565b506001600160a01b031660009081526068602052604090205490565b610b4b610f8d565b610b556000611153565b565b606060005b602081108015610b8a5750828160208110610b7957610b79612762565b1a60f81b6001600160f81b03191615155b15610b9f57610b9881612778565b9050610b5c565b6000816001600160401b03811115610bb957610bb9612231565b6040519080825280601f01601f191660200182016040528015610be3576020820181803683370190505b50905060005b82811015610c4057848160208110610c0357610c03612762565b1a60f81b828281518110610c1957610c19612762565b60200101906001600160f81b031916908160001a905350610c3981612778565b9050610be9565b509392505050565b60606066805461052190612676565b60405162461bcd60e51b815260206004820152602b60248201527f455243373231207075626c696320736574417070726f76616c466f72416c6c2060448201526a1b9bdd08185b1b1bddd95960aa1b60648201526084016105cb565b610cbb610f8d565b60cc805460ff19166001179055565b610cd2610f8d565b610d41858580806020026020016040519081016040528093929190818152602001838360200280828437600092019190915250506040805160208089028281018201909352888252909350889250879182918501908490808284376000920191909152508692506111a5915050565b5050505050565b6060610d53826112b1565b6000610d5d611144565b90506000815111610d7d5760405180602001604052806000815250610931565b80610d87846112d6565b604051602001610d98929190612791565b6040516020818303038152906040529392505050565b610db6610f8d565b60cb5415801590610dc8575060cb5442115b15610de65760405163624b779560e01b815260040160405180910390fd5b610df284848484611368565b50505050565b610a0183838360005b610df28484848461154b565b610e15610f8d565b6001600160a01b038116610e7a5760405162461bcd60e51b815260206004820152602660248201527f4f776e61626c653a206e6577206f776e657220697320746865207a65726f206160448201526564647265737360d01b60648201526084016105cb565b610e8381611153565b50565b6001600160a01b03163b151590565b600054610100900460ff1615808015610eb55750600054600160ff909116105b80610ecf5750303b158015610ecf575060005460ff166001145b610eeb5760405162461bcd60e51b81526004016105cb90612714565b6000805460ff191660011790558015610f0e576000805461ff0019166101001790555b610f18838361159c565b6109bb6115d1565b60006001600160e01b031982166380ac58cd60e01b1480610f5157506001600160e01b03198216635b5e139f60e01b145b8061050c57506301ffc9a760e01b6001600160e01b031983161461050c565b6000908152606760205260409020546001600160a01b0316151590565b6097546001600160a01b03163314610b555760405162461bcd60e51b815260206004820181905260248201527f4f776e61626c653a2063616c6c6572206973206e6f7420746865206f776e657260448201526064016105cb565b6040516001600160a01b0382166024820152610e839060440160408051601f198184030181529190526020810180516001600160e01b031663161765e160e11b179052611600565b610e838160405160240161104591815260200190565b60408051601f198184030181529190526020810180516001600160e01b031663f82c50f160e01b179052611600565b60008060006110838585611621565b91509150610c4081611666565b60008061109e8585856117b0565b80519091506110ad3382611850565b81602001516001600160a01b0316817f1e98ed4919fa421d4b871082794f2c63228dd0b5efb584e1a6131de3a7d26cb260405160405180910390a395945050505050565b6040517f19457468657265756d205369676e6564204d6573736167653a0a3332000000006020820152603c8101829052600090605c01604051602081830303815290604052805190602001209050919050565b606060cd805461052190612676565b609780546001600160a01b038381166001600160a01b0319831681179093556040519116919082907f8be0079c531659141344cd1fd0a4f28419497f9722a3daafe3b4186f6b6457e090600090a35050565b8151835181146111c85760405163512509d360e11b815260040160405180910390fd5b60005b81811015610d415760008582815181106111e7576111e7612762565b60200260200101519050600085838151811061120557611205612762565b60200260200101519050848015611220575061122081610f70565b1561123e57604051633fc613e760e01b815260040160405180910390fd5b604080516060810182529182526001600160a01b0392831660208084018281526001858501818152600094855260c99093529390922093518455905192909101805491511515600160a01b026001600160a81b031990921692909316919091171790556112aa81612778565b90506111cb565b6112ba81610f70565b610e835760405162461bcd60e51b81526004016105cb906126b0565b606060006112e3836119bd565b60010190506000816001600160401b0381111561130257611302612231565b6040519080825280601f01601f19166020018201604052801561132c576020820181803683370190505b5090508181016020015b600019016f181899199a1a9b1b9c1cb0b131b232b360811b600a86061a8153600a850494508461133657509392505050565b8281146113885760405163512509d360e11b815260040160405180910390fd5b60005b83811015610d415760008585838181106113a7576113a7612762565b90506020020160208101906113bc9190612124565b6001600160a01b03818116600090815260c9602090815260409182902082516060810184528154815260019091015493841691810191909152600160a01b90920460ff161515908201819052919250906114295760405163794ea60960e01b815260040160405180910390fd5b600085858581811061143d5761143d612762565b90506020020160208101906114529190612124565b8251604080516060810182528281526001600160a01b0380851660208084018281526001858701818152600094855260c99093529590922093518455905192909301805493511515600160a01b026001600160a81b031990941692909116919091179190911790559091506114c681610f70565b1561150d57816001600160a01b0316846001600160a01b0316827fcd66beec785ca42d0623b531cba30cb24eacae50d76d9301b6945341cbd5856560405160405180910390a45b5050506001600160a01b0316600090815260c96020526040812090815560010180546001600160a81b031916905561154481612778565b905061138b565b60006115588585856117b0565b51905081156115895761158461156d82610a1a565b338360405180602001604052806000815250611a95565b610d41565b610d4161159582610a1a565b3383611ac8565b600054610100900460ff166115c35760405162461bcd60e51b81526004016105cb906127c0565b6115cd8282611c2c565b5050565b600054610100900460ff166115f85760405162461bcd60e51b81526004016105cb906127c0565b610b55611c7a565b80516a636f6e736f6c652e6c6f67602083016000808483855afa5050505050565b60008082516041036116575760208301516040840151606085015160001a61164b87828585611caa565b9450945050505061165f565b506000905060025b9250929050565b600081600481111561167a5761167a61280b565b036116825750565b60018160048111156116965761169661280b565b036116e35760405162461bcd60e51b815260206004820152601860248201527f45434453413a20696e76616c6964207369676e6174757265000000000000000060448201526064016105cb565b60028160048111156116f7576116f761280b565b036117445760405162461bcd60e51b815260206004820152601f60248201527f45434453413a20696e76616c6964207369676e6174757265206c656e6774680060448201526064016105cb565b60038160048111156117585761175861280b565b03610e835760405162461bcd60e51b815260206004820152602260248201527f45434453413a20696e76616c6964207369676e6174757265202773272076616c604482015261756560f01b60648201526084016105cb565b60408051606081018252600080825260208201819052918101829052906117d8858585611d6e565b6001600160a01b03818116600090815260c9602090815260409182902082516060810184528154815260019091015493841691810191909152600160a01b90920460ff1615801591830191909152919250906118375791506109319050565b604051638baa579f60e01b815260040160405180910390fd5b6001600160a01b0382166118a65760405162461bcd60e51b815260206004820181905260248201527f4552433732313a206d696e7420746f20746865207a65726f206164647265737360448201526064016105cb565b6118af81610f70565b156118fc5760405162461bcd60e51b815260206004820152601c60248201527f4552433732313a20746f6b656e20616c7265616479206d696e7465640000000060448201526064016105cb565b61190581610f70565b156119525760405162461bcd60e51b815260206004820152601c60248201527f4552433732313a20746f6b656e20616c7265616479206d696e7465640000000060448201526064016105cb565b6001600160a01b038216600081815260686020908152604080832080546001019055848352606790915280822080546001600160a01b0319168417905551839291907fddf252ad1be2c89b69c2b068fc378daa952ba7f163c4a11628f55a4df523b3ef908290a45050565b60008072184f03e93ff9f4daa797ed6e38ed64bf6a1f0160401b83106119fc5772184f03e93ff9f4daa797ed6e38ed64bf6a1f0160401b830492506040015b6d04ee2d6d415b85acef81000000008310611a28576d04ee2d6d415b85acef8100000000830492506020015b662386f26fc100008310611a4657662386f26fc10000830492506010015b6305f5e1008310611a5e576305f5e100830492506008015b6127108310611a7257612710830492506004015b60648310611a84576064830492506002015b600a831061050c5760010192915050565b611aa0848484611ac8565b611aac84848484611e42565b610df25760405162461bcd60e51b81526004016105cb90612821565b826001600160a01b0316611adb82610a1a565b6001600160a01b031614611b015760405162461bcd60e51b81526004016105cb90612873565b6001600160a01b038216611b635760405162461bcd60e51b8152602060048201526024808201527f4552433732313a207472616e7366657220746f20746865207a65726f206164646044820152637265737360e01b60648201526084016105cb565b826001600160a01b0316611b7682610a1a565b6001600160a01b031614611b9c5760405162461bcd60e51b81526004016105cb90612873565b600081815260696020908152604080832080546001600160a01b03199081169091556001600160a01b0387811680865260688552838620805460001901905590871680865283862080546001019055868652606790945282852080549092168417909155905184937fddf252ad1be2c89b69c2b068fc378daa952ba7f163c4a11628f55a4df523b3ef91a4505050565b600054610100900460ff16611c535760405162461bcd60e51b81526004016105cb906127c0565b8151611c66906065906020850190611fc8565b508051610a01906066906020840190611fc8565b600054610100900460ff16611ca15760405162461bcd60e51b81526004016105cb906127c0565b610b5533611153565b6000807f7fffffffffffffffffffffffffffffff5d576e7357a4501ddfe92f46681b20a0831115611ce15750600090506003611d65565b6040805160008082526020820180845289905260ff881692820192909252606081018690526080810185905260019060a0016020604051602081039080840390855afa158015611d35573d6000803e3d6000fd5b5050604051601f1901519150506001600160a01b038116611d5e57600060019250925050611d65565b9150600090505b94509492505050565b6000814311611d9057604051631391e11b60e21b815260040160405180910390fd5b60fa8243031115611db4576040516351cc51c760e11b815260040160405180910390fd5b6040516bffffffffffffffffffffffff193360601b16602082015282406034820181905290600090611dfe90605401604051602081830303815290604052805190602001206110f1565b905061092c86868080601f01602080910402602001604051908101604052809392919081815260200183838082843760009201919091525085939250506110749050565b60006001600160a01b0384163b15611f3857604051630a85bd0160e11b81526001600160a01b0385169063150b7a0290611e869033908990889088906004016128b8565b6020604051808303816000875af1925050508015611ec1575060408051601f3d908101601f19168201909252611ebe918101906128f5565b60015b611f1e573d808015611eef576040519150601f19603f3d011682016040523d82523d6000602084013e611ef4565b606091505b508051600003611f165760405162461bcd60e51b81526004016105cb90612821565b805181602001fd5b6001600160e01b031916630a85bd0160e11b149050611f3c565b5060015b949350505050565b828054611f5090612676565b90600052602060002090601f016020900481019282611f725760008555611fb8565b82601f10611f8b5782800160ff19823516178555611fb8565b82800160010185558215611fb8579182015b82811115611fb8578235825591602001919060010190611f9d565b50611fc492915061203c565b5090565b828054611fd490612676565b90600052602060002090601f016020900481019282611ff65760008555611fb8565b82601f1061200f57805160ff1916838001178555611fb8565b82800160010185558215611fb8579182015b82811115611fb8578251825591602001919060010190612021565b5b80821115611fc4576000815560010161203d565b6001600160e01b031981168114610e8357600080fd5b60006020828403121561207957600080fd5b813561093181612051565b60005b8381101561209f578181015183820152602001612087565b83811115610df25750506000910152565b600081518084526120c8816020860160208601612084565b601f01601f19169290920160200192915050565b60208152600061093160208301846120b0565b60006020828403121561210157600080fd5b5035919050565b80356001600160a01b038116811461211f57600080fd5b919050565b60006020828403121561213657600080fd5b61093182612108565b6000806040838503121561215257600080fd5b61215b83612108565b946020939093013593505050565b60008060006060848603121561217e57600080fd5b61218784612108565b925061219560208501612108565b9150604084013590509250925092565b60008083601f8401126121b757600080fd5b5081356001600160401b038111156121ce57600080fd5b60208301915083602082850101111561165f57600080fd5b6000806000604084860312156121fb57600080fd5b83356001600160401b0381111561221157600080fd5b61221d868287016121a5565b909790965060209590950135949350505050565b634e487b7160e01b600052604160045260246000fd5b600082601f83011261225857600080fd5b81356001600160401b038082111561227257612272612231565b604051601f8301601f19908116603f0116810190828211818310171561229a5761229a612231565b816040528381528660208588010111156122b357600080fd5b836020870160208301376000602085830101528094505050505092915050565b6000806000606084860312156122e857600080fd5b8335925060208401356001600160401b038082111561230657600080fd5b61231287838801612247565b9350604086013591508082111561232857600080fd5b5061233586828701612247565b9150509250925092565b6000806040838503121561235257600080fd5b82356001600160401b038082111561236957600080fd5b61237586838701612247565b9350602085013591508082111561238b57600080fd5b5061239885828601612247565b9150509250929050565b600080602083850312156123b557600080fd5b82356001600160401b038111156123cb57600080fd5b6123d7858286016121a5565b90969095509350505050565b8035801515811461211f57600080fd5b6000806040838503121561240657600080fd5b61240f83612108565b915061241d602084016123e3565b90509250929050565b6000806000806080858703121561243c57600080fd5b61244585612108565b935061245360208601612108565b92506040850135915060608501356001600160401b0381111561247557600080fd5b61248187828801612247565b91505092959194509250565b60006020828403121561249f57600080fd5b81356001600160401b038111156124b557600080fd5b611f3c84828501612247565b60008083601f8401126124d357600080fd5b5081356001600160401b038111156124ea57600080fd5b6020830191508360208260051b850101111561165f57600080fd5b60008060008060006060868803121561251d57600080fd5b85356001600160401b038082111561253457600080fd5b61254089838a016124c1565b9097509550602088013591508082111561255957600080fd5b50612566888289016124c1565b90945092506125799050604087016123e3565b90509295509295909350565b6000806000806040858703121561259b57600080fd5b84356001600160401b03808211156125b257600080fd5b6125be888389016124c1565b909650945060208701359150808211156125d757600080fd5b506125e4878288016124c1565b95989497509550505050565b6000806000806060858703121561260657600080fd5b84356001600160401b0381111561261c57600080fd5b612628878288016121a5565b90955093505060208501359150612641604086016123e3565b905092959194509250565b6000806040838503121561265f57600080fd5b61266883612108565b915061241d60208401612108565b600181811c9082168061268a57607f821691505b6020821081036126aa57634e487b7160e01b600052602260045260246000fd5b50919050565b60208082526018908201527f4552433732313a20696e76616c696420746f6b656e2049440000000000000000604082015260600190565b634e487b7160e01b600052601160045260246000fd5b60008282101561270f5761270f6126e7565b500390565b6020808252602e908201527f496e697469616c697a61626c653a20636f6e747261637420697320616c72656160408201526d191e481a5b9a5d1a585b1a5e995960921b606082015260800190565b634e487b7160e01b600052603260045260246000fd5b60006001820161278a5761278a6126e7565b5060010190565b600083516127a3818460208801612084565b8351908301906127b7818360208801612084565b01949350505050565b6020808252602b908201527f496e697469616c697a61626c653a20636f6e7472616374206973206e6f74206960408201526a6e697469616c697a696e6760a81b606082015260800190565b634e487b7160e01b600052602160045260246000fd5b60208082526032908201527f4552433732313a207472616e7366657220746f206e6f6e20455243373231526560408201527131b2b4bb32b91034b6b83632b6b2b73a32b960711b606082015260800190565b60208082526025908201527f4552433732313a207472616e736665722066726f6d20696e636f72726563742060408201526437bbb732b960d91b606082015260800190565b6001600160a01b03858116825284166020820152604081018390526080606082018190526000906128eb908301846120b0565b9695505050505050565b60006020828403121561290757600080fd5b81516109318161205156fea264697066735822122016a438630628fe766701ce3c9e4253166bb42573dc9c71d0935193fbf8ddd4fd64736f6c634300080d0033496e697469616c697a61626c653a20636f6e747261637420697320616c726561496e697469616c697a61626c653a20636f6e7472616374206973206e6f742069",
  "devdoc": {
    "kind": "dev",
    "methods": {
      "approve(address,uint256)": {
        "details": "See {IERC721-approve}."
      },
      "balanceOf(address)": {
        "details": "See {IERC721-balanceOf}."
      },
      "contractType()": {
        "details": "Returns the type of the contract."
      },
      "contractVersion()": {
        "details": "Returns the version of the contract."
      },
      "getApproved(uint256)": {
        "details": "See {IERC721-getApproved}."
      },
      "isApprovedForAll(address,address)": {
        "details": "See {IERC721-isApprovedForAll}."
      },
      "isChipSignatureForToken(uint256,bytes,bytes)": {
        "details": "Throws if tokenId does not exist in the collection.",
        "params": {
          "payload": "Arbitrary data that is signed by the chip to produce the signature param.",
          "signature": "Chip's signature of the passed-in payload.",
          "tokenId": "The token id."
        },
        "returns": {
          "_0": "Whether the signature of the payload was signed by the chip linked to the token id."
        }
      },
      "name()": {
        "details": "See {IERC721Metadata-name}."
      },
      "owner()": {
        "details": "Returns the address of the current owner."
      },
      "ownerOf(uint256)": {
        "details": "See {IERC721-ownerOf}."
      },
      "renounceOwnership()": {
        "details": "Leaves the contract without owner. It will not be possible to call `onlyOwner` functions. Can only be called by the current owner. NOTE: Renouncing ownership will leave the contract without an owner, thereby disabling any functionality that is only available to the owner."
      },
      "safeTransferFrom(address,address,uint256)": {
        "details": "See {IERC721-safeTransferFrom}."
      },
      "safeTransferFrom(address,address,uint256,bytes)": {
        "details": "See {IERC721-safeTransferFrom}."
      },
      "setApprovalForAll(address,bool)": {
        "details": "See {IERC721-setApprovalForAll}."
      },
      "supportsInterface(bytes4)": {
        "details": "See {IERC165-supportsInterface}."
      },
      "symbol()": {
        "details": "See {IERC721Metadata-symbol}."
      },
      "tokenIdFor(address)": {
        "details": "Throws if there is no existing token for the chip in the collection.",
        "params": {
          "chipAddress": "The address for the chip embedded in the physical item (computed from the chip's public key)."
        },
        "returns": {
          "_0": "The token id for the passed in chip address."
        }
      },
      "tokenURI(uint256)": {
        "details": "See {IERC721Metadata-tokenURI}."
      },
      "transferFrom(address,address,uint256)": {
        "details": "See {IERC721-transferFrom}."
      },
      "transferOwnership(address)": {
        "details": "Transfers ownership of the contract to a new account (`newOwner`). Can only be called by the current owner."
      },
      "transferTokenWithChip(bytes,uint256,bool)": {
        "details": "The implementation should check that block number be reasonably recent to avoid replay attacks of stale signatures. The implementation should also verify that the address signed in the signature matches msgSender. If the address recovered from the signature matches a chip address that's bound to an existing token, the token should be transferred to msgSender. If there is no existing token linked to the chip, the function should error.",
        "params": {
          "blockNumberUsedInSig": "The block number linked to the blockhash signed in signatureFromChip. Should be a recent block number.",
          "signatureFromChip": "An EIP-191 signature of (msgSender, blockhash), where blockhash is the block hash for blockNumberUsedInSig.",
          "useSafeTransferFrom": "Whether EIP-721's safeTransferFrom should be used in the implementation, instead of transferFrom."
        }
      }
    },
    "version": 1
  },
  "userdoc": {
    "events": {
      "PBTChipRemapping(uint256,address,address)": {
        "notice": "Emitted when a token is mapped to a different chip. Chip replacements may be useful in certain scenarios (e.g. chip defect)."
      },
      "PBTMint(uint256,address)": {
        "notice": "Emitted when a token is minted."
      }
    },
    "kind": "user",
    "methods": {
      "isChipSignatureForToken(uint256,bytes,bytes)": {
        "notice": "Returns true if the chip for the specified token id is the signer of the signature of the payload."
      },
      "tokenIdFor(address)": {
        "notice": "Returns the token id for a given chip address."
      },
      "transferTokenWithChip(bytes,uint256)": {
        "notice": "Calls transferTokenWithChip as defined above, with useSafeTransferFrom set to false."
      },
      "transferTokenWithChip(bytes,uint256,bool)": {
        "notice": "Transfers the token into the message sender's wallet."
      }
    },
    "version": 1
  },
  "storageLayout": {
    "storage": [
      {
        "astId": 138,
        "contract": "contracts/BellToAlango.sol:BellToAlango",
        "label": "_initialized",
        "offset": 0,
        "slot": "0",
        "type": "t_uint8"
      },
      {
        "astId": 141,
        "contract": "contracts/BellToAlango.sol:BellToAlango",
        "label": "_initializing",
        "offset": 1,
        "slot": "0",
        "type": "t_bool"
      },
      {
        "astId": 1784,
        "contract": "contracts/BellToAlango.sol:BellToAlango",
        "label": "__gap",
        "offset": 0,
        "slot": "1",
        "type": "t_array(t_uint256)50_storage"
      },
      {
        "astId": 2057,
        "contract": "contracts/BellToAlango.sol:BellToAlango",
        "label": "__gap",
        "offset": 0,
        "slot": "51",
        "type": "t_array(t_uint256)50_storage"
      },
      {
        "astId": 329,
        "contract": "contracts/BellToAlango.sol:BellToAlango",
        "label": "_name",
        "offset": 0,
        "slot": "101",
        "type": "t_string_storage"
      },
      {
        "astId": 331,
        "contract": "contracts/BellToAlango.sol:BellToAlango",
        "label": "_symbol",
        "offset": 0,
        "slot": "102",
        "type": "t_string_storage"
      },
      {
        "astId": 335,
        "contract": "contracts/BellToAlango.sol:BellToAlango",
        "label": "_owners",
        "offset": 0,
        "slot": "103",
        "type": "t_mapping(t_uint256,t_address)"
      },
      {
        "astId": 339,
        "contract": "contracts/BellToAlango.sol:BellToAlango",
        "label": "_balances",
        "offset": 0,
        "slot": "104",
        "type": "t_mapping(t_address,t_uint256)"
      },
      {
        "astId": 343,
        "contract": "contracts/BellToAlango.sol:BellToAlango",
        "label": "_tokenApprovals",
        "offset": 0,
        "slot": "105",
        "type": "t_mapping(t_uint256,t_address)"
      },
      {
        "astId": 349,
        "contract": "contracts/BellToAlango.sol:BellToAlango",
        "label": "_operatorApprovals",
        "offset": 0,
        "slot": "106",
        "type": "t_mapping(t_address,t_mapping(t_address,t_bool))"
      },
      {
        "astId": 1251,
        "contract": "contracts/BellToAlango.sol:BellToAlango",
        "label": "__gap",
        "offset": 0,
        "slot": "107",
        "type": "t_array(t_uint256)44_storage"
      },
      {
        "astId": 10,
        "contract": "contracts/BellToAlango.sol:BellToAlango",
        "label": "_owner",
        "offset": 0,
        "slot": "151",
        "type": "t_address"
      },
      {
        "astId": 130,
        "contract": "contracts/BellToAlango.sol:BellToAlango",
        "label": "__gap",
        "offset": 0,
        "slot": "152",
        "type": "t_array(t_uint256)49_storage"
      },
      {
        "astId": 4980,
        "contract": "contracts/BellToAlango.sol:BellToAlango",
        "label": "_tokenDatas",
        "offset": 0,
        "slot": "201",
        "type": "t_mapping(t_address,t_struct(TokenData)4974_storage)"
      },
      {
        "astId": 4461,
        "contract": "contracts/BellToAlango.sol:BellToAlango",
        "label": "supply",
        "offset": 0,
        "slot": "202",
        "type": "t_uint256"
      },
      {
        "astId": 4463,
        "contract": "contracts/BellToAlango.sol:BellToAlango",
        "label": "changeDeadline",
        "offset": 0,
        "slot": "203",
        "type": "t_uint256"
      },
      {
        "astId": 4465,
        "contract": "contracts/BellToAlango.sol:BellToAlango",
        "label": "canMint",
        "offset": 0,
        "slot": "204",
        "type": "t_bool"
      },
      {
        "astId": 4467,
        "contract": "contracts/BellToAlango.sol:BellToAlango",
        "label": "_baseTokenURI",
        "offset": 0,
        "slot": "205",
        "type": "t_string_storage"
      }
    ],
    "types": {
      "t_address": {
        "encoding": "inplace",
        "label": "address",
        "numberOfBytes": "20"
      },
      "t_array(t_uint256)44_storage": {
        "base": "t_uint256",
        "encoding": "inplace",
        "label": "uint256[44]",
        "numberOfBytes": "1408"
      },
      "t_array(t_uint256)49_storage": {
        "base": "t_uint256",
        "encoding": "inplace",
        "label": "uint256[49]",
        "numberOfBytes": "1568"
      },
      "t_array(t_uint256)50_storage": {
        "base": "t_uint256",
        "encoding": "inplace",
        "label": "uint256[50]",
        "numberOfBytes": "1600"
      },
      "t_bool": {
        "encoding": "inplace",
        "label": "bool",
        "numberOfBytes": "1"
      },
      "t_mapping(t_address,t_bool)": {
        "encoding": "mapping",
        "key": "t_address",
        "label": "mapping(address => bool)",
        "numberOfBytes": "32",
        "value": "t_bool"
      },
      "t_mapping(t_address,t_mapping(t_address,t_bool))": {
        "encoding": "mapping",
        "key": "t_address",
        "label": "mapping(address => mapping(address => bool))",
        "numberOfBytes": "32",
        "value": "t_mapping(t_address,t_bool)"
      },
      "t_mapping(t_address,t_struct(TokenData)4974_storage)": {
        "encoding": "mapping",
        "key": "t_address",
        "label": "mapping(address => struct PBTSimple.TokenData)",
        "numberOfBytes": "32",
        "value": "t_struct(TokenData)4974_storage"
      },
      "t_mapping(t_address,t_uint256)": {
        "encoding": "mapping",
        "key": "t_address",
        "label": "mapping(address => uint256)",
        "numberOfBytes": "32",
        "value": "t_uint256"
      },
      "t_mapping(t_uint256,t_address)": {
        "encoding": "mapping",
        "key": "t_uint256",
        "label": "mapping(uint256 => address)",
        "numberOfBytes": "32",
        "value": "t_address"
      },
      "t_string_storage": {
        "encoding": "bytes",
        "label": "string",
        "numberOfBytes": "32"
      },
      "t_struct(TokenData)4974_storage": {
        "encoding": "inplace",
        "label": "struct PBTSimple.TokenData",
        "members": [
          {
            "astId": 4969,
            "contract": "contracts/BellToAlango.sol:BellToAlango",
            "label": "tokenId",
            "offset": 0,
            "slot": "0",
            "type": "t_uint256"
          },
          {
            "astId": 4971,
            "contract": "contracts/BellToAlango.sol:BellToAlango",
            "label": "chipAddress",
            "offset": 0,
            "slot": "1",
            "type": "t_address"
          },
          {
            "astId": 4973,
            "contract": "contracts/BellToAlango.sol:BellToAlango",
            "label": "set",
            "offset": 20,
            "slot": "1",
            "type": "t_bool"
          }
        ],
        "numberOfBytes": "64"
      },
      "t_uint256": {
        "encoding": "inplace",
        "label": "uint256",
        "numberOfBytes": "32"
      },
      "t_uint8": {
        "encoding": "inplace",
        "label": "uint8",
        "numberOfBytes": "1"
      }
    }
  }
}