{
  "address": "0x87e7d93Ea10c7249E9F884404F8A2930C13ea7DC",
  "abi": [
    {
      "inputs": [
        {
          "internalType": "string",
          "name": "name_",
          "type": "string"
        },
        {
          "internalType": "string",
          "name": "symbol_",
          "type": "string"
        }
      ],
      "stateMutability": "nonpayable",
      "type": "constructor"
    },
    {
      "inputs": [],
      "name": "ArrayLengthMismatch",
      "type": "error"
    },
    {
      "inputs": [],
      "name": "BlockNumberTooOld",
      "type": "error"
    },
    {
      "inputs": [],
      "name": "CannotMakeChanges",
      "type": "error"
    },
    {
      "inputs": [],
      "name": "CannotUpdateDeadline",
      "type": "error"
    },
    {
      "inputs": [],
      "name": "InvalidBlockNumber",
      "type": "error"
    },
    {
      "inputs": [],
      "name": "InvalidSignature",
      "type": "error"
    },
    {
      "inputs": [],
      "name": "MintNotOpen",
      "type": "error"
    },
    {
      "inputs": [],
      "name": "NoMappedTokenForChip",
      "type": "error"
    },
    {
      "inputs": [],
      "name": "NoMintedTokenForChip",
      "type": "error"
    },
    {
      "inputs": [],
      "name": "SeedingChipDataForExistingToken",
      "type": "error"
    },
    {
      "inputs": [],
      "name": "TotalSupplyReached",
      "type": "error"
    },
    {
      "inputs": [],
      "name": "UpdatingChipForUnsetChipMapping",
      "type": "error"
    },
    {
      "anonymous": false,
      "inputs": [
        {
          "indexed": true,
          "internalType": "address",
          "name": "owner",
          "type": "address"
        },
        {
          "indexed": true,
          "internalType": "address",
          "name": "approved",
          "type": "address"
        },
        {
          "indexed": true,
          "internalType": "uint256",
          "name": "tokenId",
          "type": "uint256"
        }
      ],
      "name": "Approval",
      "type": "event"
    },
    {
      "anonymous": false,
      "inputs": [
        {
          "indexed": true,
          "internalType": "address",
          "name": "owner",
          "type": "address"
        },
        {
          "indexed": true,
          "internalType": "address",
          "name": "operator",
          "type": "address"
        },
        {
          "indexed": false,
          "internalType": "bool",
          "name": "approved",
          "type": "bool"
        }
      ],
      "name": "ApprovalForAll",
      "type": "event"
    },
    {
      "anonymous": false,
      "inputs": [
        {
          "indexed": false,
          "internalType": "uint8",
          "name": "version",
          "type": "uint8"
        }
      ],
      "name": "Initialized",
      "type": "event"
    },
    {
      "anonymous": false,
      "inputs": [
        {
          "indexed": true,
          "internalType": "address",
          "name": "previousOwner",
          "type": "address"
        },
        {
          "indexed": true,
          "internalType": "address",
          "name": "newOwner",
          "type": "address"
        }
      ],
      "name": "OwnershipTransferred",
      "type": "event"
    },
    {
      "anonymous": false,
      "inputs": [
        {
          "indexed": true,
          "internalType": "uint256",
          "name": "tokenId",
          "type": "uint256"
        },
        {
          "indexed": true,
          "internalType": "address",
          "name": "oldChipAddress",
          "type": "address"
        },
        {
          "indexed": true,
          "internalType": "address",
          "name": "newChipAddress",
          "type": "address"
        }
      ],
      "name": "PBTChipRemapping",
      "type": "event"
    },
    {
      "anonymous": false,
      "inputs": [
        {
          "indexed": true,
          "internalType": "uint256",
          "name": "tokenId",
          "type": "uint256"
        },
        {
          "indexed": true,
          "internalType": "address",
          "name": "chipAddress",
          "type": "address"
        }
      ],
      "name": "PBTMint",
      "type": "event"
    },
    {
      "anonymous": false,
      "inputs": [
        {
          "indexed": true,
          "internalType": "address",
          "name": "from",
          "type": "address"
        },
        {
          "indexed": true,
          "internalType": "address",
          "name": "to",
          "type": "address"
        },
        {
          "indexed": true,
          "internalType": "uint256",
          "name": "tokenId",
          "type": "uint256"
        }
      ],
      "name": "Transfer",
      "type": "event"
    },
    {
      "inputs": [],
      "name": "TOTAL_SUPPLY",
      "outputs": [
        {
          "internalType": "uint256",
          "name": "",
          "type": "uint256"
        }
      ],
      "stateMutability": "view",
      "type": "function"
    },
    {
      "inputs": [
        {
          "internalType": "address",
          "name": "to",
          "type": "address"
        },
        {
          "internalType": "uint256",
          "name": "tokenId",
          "type": "uint256"
        }
      ],
      "name": "approve",
      "outputs": [],
      "stateMutability": "nonpayable",
      "type": "function"
    },
    {
      "inputs": [
        {
          "internalType": "address",
          "name": "owner",
          "type": "address"
        }
      ],
      "name": "balanceOf",
      "outputs": [
        {
          "internalType": "uint256",
          "name": "",
          "type": "uint256"
        }
      ],
      "stateMutability": "view",
      "type": "function"
    },
    {
      "inputs": [],
      "name": "baseURI",
      "outputs": [
        {
          "internalType": "string",
          "name": "",
          "type": "string"
        }
      ],
      "stateMutability": "view",
      "type": "function"
    },
    {
      "inputs": [],
      "name": "canMint",
      "outputs": [
        {
          "internalType": "bool",
          "name": "",
          "type": "bool"
        }
      ],
      "stateMutability": "view",
      "type": "function"
    },
    {
      "inputs": [],
      "name": "changeDeadline",
      "outputs": [
        {
          "internalType": "uint256",
          "name": "",
          "type": "uint256"
        }
      ],
      "stateMutability": "view",
      "type": "function"
    },
    {
      "inputs": [],
      "name": "contractType",
      "outputs": [
        {
          "internalType": "bytes32",
          "name": "",
          "type": "bytes32"
        }
      ],
      "stateMutability": "pure",
      "type": "function"
    },
    {
      "inputs": [],
      "name": "contractVersion",
      "outputs": [
        {
          "internalType": "uint8",
          "name": "",
          "type": "uint8"
        }
      ],
      "stateMutability": "pure",
      "type": "function"
    },
    {
      "inputs": [
        {
          "internalType": "uint256",
          "name": "tokenId",
          "type": "uint256"
        }
      ],
      "name": "getApproved",
      "outputs": [
        {
          "internalType": "address",
          "name": "",
          "type": "address"
        }
      ],
      "stateMutability": "view",
      "type": "function"
    },
    {
      "inputs": [],
      "name": "getMaxBlockhashValidWindow",
      "outputs": [
        {
          "internalType": "uint256",
          "name": "",
          "type": "uint256"
        }
      ],
      "stateMutability": "pure",
      "type": "function"
    },
    {
      "inputs": [
        {
          "internalType": "string",
          "name": "name_",
          "type": "string"
        },
        {
          "internalType": "string",
          "name": "symbol_",
          "type": "string"
        }
      ],
      "name": "initialize",
      "outputs": [],
      "stateMutability": "nonpayable",
      "type": "function"
    },
    {
      "inputs": [
        {
          "internalType": "address",
          "name": "owner",
          "type": "address"
        },
        {
          "internalType": "address",
          "name": "operator",
          "type": "address"
        }
      ],
      "name": "isApprovedForAll",
      "outputs": [
        {
          "internalType": "bool",
          "name": "",
          "type": "bool"
        }
      ],
      "stateMutability": "view",
      "type": "function"
    },
    {
      "inputs": [
        {
          "internalType": "uint256",
          "name": "tokenId",
          "type": "uint256"
        },
        {
          "internalType": "bytes",
          "name": "payload",
          "type": "bytes"
        },
        {
          "internalType": "bytes",
          "name": "signature",
          "type": "bytes"
        }
      ],
      "name": "isChipSignatureForToken",
      "outputs": [
        {
          "internalType": "bool",
          "name": "",
          "type": "bool"
        }
      ],
      "stateMutability": "view",
      "type": "function"
    },
    {
      "inputs": [
        {
          "internalType": "bytes",
          "name": "signatureFromChip",
          "type": "bytes"
        },
        {
          "internalType": "uint256",
          "name": "blockNumberUsedInSig",
          "type": "uint256"
        }
      ],
      "name": "mintBellToAlango",
      "outputs": [],
      "stateMutability": "nonpayable",
      "type": "function"
    },
    {
      "inputs": [],
      "name": "name",
      "outputs": [
        {
          "internalType": "string",
          "name": "",
          "type": "string"
        }
      ],
      "stateMutability": "view",
      "type": "function"
    },
    {
      "inputs": [],
      "name": "openMint",
      "outputs": [],
      "stateMutability": "nonpayable",
      "type": "function"
    },
    {
      "inputs": [],
      "name": "owner",
      "outputs": [
        {
          "internalType": "address",
          "name": "",
          "type": "address"
        }
      ],
      "stateMutability": "view",
      "type": "function"
    },
    {
      "inputs": [
        {
          "internalType": "uint256",
          "name": "tokenId",
          "type": "uint256"
        }
      ],
      "name": "ownerOf",
      "outputs": [
        {
          "internalType": "address",
          "name": "",
          "type": "address"
        }
      ],
      "stateMutability": "view",
      "type": "function"
    },
    {
      "inputs": [],
      "name": "renounceOwnership",
      "outputs": [],
      "stateMutability": "nonpayable",
      "type": "function"
    },
    {
      "inputs": [
        {
          "internalType": "address",
          "name": "from",
          "type": "address"
        },
        {
          "internalType": "address",
          "name": "to",
          "type": "address"
        },
        {
          "internalType": "uint256",
          "name": "tokenId",
          "type": "uint256"
        }
      ],
      "name": "safeTransferFrom",
      "outputs": [],
      "stateMutability": "nonpayable",
      "type": "function"
    },
    {
      "inputs": [
        {
          "internalType": "address",
          "name": "from",
          "type": "address"
        },
        {
          "internalType": "address",
          "name": "to",
          "type": "address"
        },
        {
          "internalType": "uint256",
          "name": "tokenId",
          "type": "uint256"
        },
        {
          "internalType": "bytes",
          "name": "data",
          "type": "bytes"
        }
      ],
      "name": "safeTransferFrom",
      "outputs": [],
      "stateMutability": "nonpayable",
      "type": "function"
    },
    {
      "inputs": [
        {
          "internalType": "address[]",
          "name": "chipAddresses",
          "type": "address[]"
        },
        {
          "internalType": "uint256[]",
          "name": "tokenIds",
          "type": "uint256[]"
        },
        {
          "internalType": "bool",
          "name": "throwIfTokenAlreadyMinted",
          "type": "bool"
        }
      ],
      "name": "seedChipToTokenMapping",
      "outputs": [],
      "stateMutability": "nonpayable",
      "type": "function"
    },
    {
      "inputs": [
        {
          "internalType": "address",
          "name": "operator",
          "type": "address"
        },
        {
          "internalType": "bool",
          "name": "approved",
          "type": "bool"
        }
      ],
      "name": "setApprovalForAll",
      "outputs": [],
      "stateMutability": "nonpayable",
      "type": "function"
    },
    {
      "inputs": [
        {
          "internalType": "string",
          "name": "baseURI",
          "type": "string"
        }
      ],
      "name": "setBaseURI",
      "outputs": [],
      "stateMutability": "nonpayable",
      "type": "function"
    },
    {
      "inputs": [
        {
          "internalType": "uint256",
          "name": "timestamp",
          "type": "uint256"
        }
      ],
      "name": "setChangeDeadline",
      "outputs": [],
      "stateMutability": "nonpayable",
      "type": "function"
    },
    {
      "inputs": [],
      "name": "supply",
      "outputs": [
        {
          "internalType": "uint256",
          "name": "",
          "type": "uint256"
        }
      ],
      "stateMutability": "view",
      "type": "function"
    },
    {
      "inputs": [
        {
          "internalType": "bytes4",
          "name": "interfaceId",
          "type": "bytes4"
        }
      ],
      "name": "supportsInterface",
      "outputs": [
        {
          "internalType": "bool",
          "name": "",
          "type": "bool"
        }
      ],
      "stateMutability": "view",
      "type": "function"
    },
    {
      "inputs": [],
      "name": "symbol",
      "outputs": [
        {
          "internalType": "string",
          "name": "",
          "type": "string"
        }
      ],
      "stateMutability": "view",
      "type": "function"
    },
    {
      "inputs": [
        {
          "internalType": "address",
          "name": "chipAddress",
          "type": "address"
        }
      ],
      "name": "tokenIdFor",
      "outputs": [
        {
          "internalType": "uint256",
          "name": "",
          "type": "uint256"
        }
      ],
      "stateMutability": "view",
      "type": "function"
    },
    {
      "inputs": [
        {
          "internalType": "address",
          "name": "chipAddress",
          "type": "address"
        }
      ],
      "name": "tokenIdMappedFor",
      "outputs": [
        {
          "internalType": "uint256",
          "name": "",
          "type": "uint256"
        }
      ],
      "stateMutability": "view",
      "type": "function"
    },
    {
      "inputs": [
        {
          "internalType": "uint256",
          "name": "tokenId",
          "type": "uint256"
        }
      ],
      "name": "tokenURI",
      "outputs": [
        {
          "internalType": "string",
          "name": "",
          "type": "string"
        }
      ],
      "stateMutability": "view",
      "type": "function"
    },
    {
      "inputs": [
        {
          "internalType": "address",
          "name": "from",
          "type": "address"
        },
        {
          "internalType": "address",
          "name": "to",
          "type": "address"
        },
        {
          "internalType": "uint256",
          "name": "tokenId",
          "type": "uint256"
        }
      ],
      "name": "transferFrom",
      "outputs": [],
      "stateMutability": "nonpayable",
      "type": "function"
    },
    {
      "inputs": [
        {
          "internalType": "address",
          "name": "newOwner",
          "type": "address"
        }
      ],
      "name": "transferOwnership",
      "outputs": [],
      "stateMutability": "nonpayable",
      "type": "function"
    },
    {
      "inputs": [
        {
          "internalType": "bytes",
          "name": "signatureFromChip",
          "type": "bytes"
        },
        {
          "internalType": "uint256",
          "name": "blockNumberUsedInSig",
          "type": "uint256"
        }
      ],
      "name": "transferTokenWithChip",
      "outputs": [],
      "stateMutability": "nonpayable",
      "type": "function"
    },
    {
      "inputs": [
        {
          "internalType": "bytes",
          "name": "signatureFromChip",
          "type": "bytes"
        },
        {
          "internalType": "uint256",
          "name": "blockNumberUsedInSig",
          "type": "uint256"
        },
        {
          "internalType": "bool",
          "name": "useSafeTransferFrom",
          "type": "bool"
        }
      ],
      "name": "transferTokenWithChip",
      "outputs": [],
      "stateMutability": "nonpayable",
      "type": "function"
    },
    {
      "inputs": [
        {
          "internalType": "address[]",
          "name": "chipAddressesOld",
          "type": "address[]"
        },
        {
          "internalType": "address[]",
          "name": "chipAddressesNew",
          "type": "address[]"
        }
      ],
      "name": "updateChips",
      "outputs": [],
      "stateMutability": "nonpayable",
      "type": "function"
    }
  ],
  "transactionHash": "0xc1469058ef25854a5974ae0c59fed8faba8c9aae4fd8e3c2befc2d73157a4dc3",
  "args": [
    "BellToAlango",
    "BTA"
  ],
  "numDeployments": 1,
  "solcInputHash": "2fd43b2e91fc0ca9077ffb6cab3e8614",
  "bytecode": "0x60806040523480156200001157600080fd5b5060405162002d1338038062002d138339810160408190526200003491620005e7565b62000040828262000048565b50506200068d565b600054610100900460ff1615808015620000695750600054600160ff909116105b8062000099575062000086306200017860201b62000c611760201c565b15801562000099575060005460ff166001145b620000f15760405162461bcd60e51b815260206004820152602e602482015260008051602062002cd383398151915260448201526d191e481a5b9a5d1a585b1a5e995960921b60648201526084015b60405180910390fd5b6000805460ff19166001179055801562000115576000805461ff0019166101001790555b6200012c83836200018760201b62000c701760201c565b801562000173576000805461ff0019169055604051600181527f7f26b83ff96e1f2b6a682f133852f6798a09c465da95921460cefb38474024989060200160405180910390a15b505050565b6001600160a01b03163b151590565b600054610100900460ff1615808015620001a85750600054600160ff909116105b80620001d85750620001c5306200017860201b62000c611760201c565b158015620001d8575060005460ff166001145b6200022c5760405162461bcd60e51b815260206004820152602e602482015260008051602062002cd383398151915260448201526d191e481a5b9a5d1a585b1a5e995960921b6064820152608401620000e8565b6000805460ff19166001179055801562000250576000805461ff0019166101001790555b6200025c838362000266565b6200012c620002d2565b600054610100900460ff16620002c25760405162461bcd60e51b815260206004820152602b602482015260008051602062002cf383398151915260448201526a6e697469616c697a696e6760a81b6064820152608401620000e8565b620002ce82826200033a565b5050565b600054610100900460ff166200032e5760405162461bcd60e51b815260206004820152602b602482015260008051602062002cf383398151915260448201526a6e697469616c697a696e6760a81b6064820152608401620000e8565b62000338620003c1565b565b600054610100900460ff16620003965760405162461bcd60e51b815260206004820152602b602482015260008051602062002cf383398151915260448201526a6e697469616c697a696e6760a81b6064820152608401620000e8565b8151620003ab90606590602085019062000474565b5080516200017390606690602084019062000474565b600054610100900460ff166200041d5760405162461bcd60e51b815260206004820152602b602482015260008051602062002cf383398151915260448201526a6e697469616c697a696e6760a81b6064820152608401620000e8565b6200033833609780546001600160a01b038381166001600160a01b0319831681179093556040519116919082907f8be0079c531659141344cd1fd0a4f28419497f9722a3daafe3b4186f6b6457e090600090a35050565b828054620004829062000651565b90600052602060002090601f016020900481019282620004a65760008555620004f1565b82601f10620004c157805160ff1916838001178555620004f1565b82800160010185558215620004f1579182015b82811115620004f1578251825591602001919060010190620004d4565b50620004ff92915062000503565b5090565b5b80821115620004ff576000815560010162000504565b634e487b7160e01b600052604160045260246000fd5b600082601f8301126200054257600080fd5b81516001600160401b03808211156200055f576200055f6200051a565b604051601f8301601f19908116603f011681019082821181831017156200058a576200058a6200051a565b81604052838152602092508683858801011115620005a757600080fd5b600091505b83821015620005cb5785820183015181830184015290820190620005ac565b83821115620005dd5760008385830101525b9695505050505050565b60008060408385031215620005fb57600080fd5b82516001600160401b03808211156200061357600080fd5b620006218683870162000530565b935060208501519150808211156200063857600080fd5b50620006478582860162000530565b9150509250929050565b600181811c908216806200066657607f821691505b6020821081036200068757634e487b7160e01b600052602260045260246000fd5b50919050565b612636806200069d6000396000f3fe608060405234801561001057600080fd5b506004361061021c5760003560e01c80637fd5e83111610125578063beb9716d116100ad578063d30d520c1161007c578063d30d520c14610447578063d67d13ad1461045a578063dcf960ee1461046d578063e985e9c514610480578063f2fde38b1461049657600080fd5b8063beb9716d146103ff578063c7e460ba1461040c578063c87b56dd1461041f578063cb2ef6f71461043257600080fd5b8063a0a8e460116100f4578063a0a8e460146103c0578063a22cb465146103cf578063b88d4fde146103e2578063ba70316f146103f0578063bce6d672146103f757600080fd5b80637fd5e831146103965780638da5cb5b1461039f578063902d55a5146103b057806395d89b41146103b857600080fd5b806342842e0e116101a85780636352211e116101775780636352211e1461034d5780636b953dd8146103605780636c0360eb1461037357806370a082311461037b578063715018a61461038e57600080fd5b806342842e0e146103015780634b5f42ea146103145780634cd88b761461032757806355f804b31461033a57600080fd5b806308daee36116101ef57806308daee36146102a0578063095ea7b3146102b357806323b872dd146102c857806329760b40146102db5780634215e6e1146102ee57600080fd5b806301ffc9a714610221578063047fc9aa1461024957806306fdde0314610260578063081812fc14610275575b600080fd5b61023461022f366004611d9d565b6104a9565b60405190151581526020015b60405180910390f35b61025260ca5481565b604051908152602001610240565b6102686104d4565b6040516102409190611e12565b610288610283366004611e25565b610566565b6040516001600160a01b039091168152602001610240565b6102526102ae366004611e5a565b61059e565b6102c66102c1366004611e75565b6105d2565b005b6102c66102d6366004611e9f565b610624565b6102c66102e9366004611e25565b61067b565b6102c66102fc366004611f1d565b6106a9565b6102c661030f366004611e9f565b610709565b61023461032236600461200c565b610764565b6102c6610335366004612079565b610804565b6102c66103483660046120dd565b6108d2565b61028861035b366004611e25565b6108e6565b61025261036e366004611e5a565b61091b565b61026861097a565b610252610389366004611e5a565b610989565b6102c6610a0f565b61025260cb5481565b6097546001600160a01b0316610288565b610252600981565b610268610a23565b60405160018152602001610240565b6102c66103dd36600461212f565b610a32565b6102c661030f366004612162565b60fa610252565b6102c6610a8e565b60cc546102349060ff1681565b6102c661041a36600461220f565b610aa5565b61026861042d366004611e25565b610b23565b6b42656c6c546f416c616e676f60a01b610252565b6102c6610455366004612290565b610b89565b6102c6610468366004611f1d565b610bd3565b6102c661047b3660046122fc565b610bdc565b61023461048e366004612359565b600092915050565b6102c66104a4366004611e5a565b610be8565b60006001600160e01b03198216634901df9f60e01b14806104ce57506104ce82610cfb565b92915050565b6060606580546104e390612383565b80601f016020809104026020016040519081016040528092919081815260200182805461050f90612383565b801561055c5780601f106105315761010080835404028352916020019161055c565b820191906000526020600020905b81548152906001019060200180831161053f57829003601f168201915b5050505050905090565b600061057182610d4b565b6105965760405162461bcd60e51b815260040161058d906123bd565b60405180910390fd5b506000919050565b6000806105aa8361091b565b90506105b581610d4b565b6104ce57604051631d240ff960e21b815260040160405180910390fd5b60405162461bcd60e51b815260206004820152602160248201527f455243373231207075626c696320617070726f7665206e6f7420616c6c6f77656044820152601960fa1b606482015260840161058d565b60405162461bcd60e51b815260206004820152602660248201527f455243373231207075626c6963207472616e7366657246726f6d206e6f7420616044820152651b1b1bddd95960d21b606482015260840161058d565b610683610d68565b60cb54156106a457604051636eade3f360e11b815260040160405180910390fd5b60cb55565b60cc5460ff166106cc5760405163951b974f60e01b815260040160405180910390fd5b600960ca54036106ef57604051637be9badb60e01b815260040160405180910390fd5b6106fa838383610dc2565b505060ca805460010190555050565b60405162461bcd60e51b815260206004820152602a60248201527f455243373231207075626c696320736166655472616e7366657246726f6d206e6044820152691bdd08185b1b1bddd95960b21b606482015260840161058d565b600061076f84610d4b565b61078c57604051631d240ff960e21b815260040160405180910390fd5b600061079e8480519060200120610e23565b905060006107ac8285610e76565b6001600160a01b038116600090815260c96020526040902060010154909150600160a01b900460ff1680156107f857506001600160a01b038116600090815260c9602052604090205486145b925050505b9392505050565b600054610100900460ff16158080156108245750600054600160ff909116105b8061083e5750303b15801561083e575060005460ff166001145b61085a5760405162461bcd60e51b815260040161058d906123f4565b6000805460ff19166001179055801561087d576000805461ff0019166101001790555b6108878383610c70565b80156108cd576000805461ff0019169055604051600181527f7f26b83ff96e1f2b6a682f133852f6798a09c465da95921460cefb38474024989060200160405180910390a15b505050565b6108da610d68565b6108cd60cd8383611c7a565b6000818152606760205260408120546001600160a01b0316806104ce5760405162461bcd60e51b815260040161058d906123bd565b6001600160a01b038116600090815260c96020526040812060010154600160a01b900460ff1661095e57604051630239974760e01b815260040160405180910390fd5b506001600160a01b0316600090815260c9602052604090205490565b6060610984610e9a565b905090565b60006001600160a01b0382166109f35760405162461bcd60e51b815260206004820152602960248201527f4552433732313a2061646472657373207a65726f206973206e6f7420612076616044820152683634b21037bbb732b960b91b606482015260840161058d565b506001600160a01b031660009081526068602052604090205490565b610a17610d68565b610a216000610ea9565b565b6060606680546104e390612383565b60405162461bcd60e51b815260206004820152602b60248201527f455243373231207075626c696320736574417070726f76616c466f72416c6c2060448201526a1b9bdd08185b1b1bddd95960aa1b606482015260840161058d565b610a96610d68565b60cc805460ff19166001179055565b610aad610d68565b610b1c85858080602002602001604051908101604052809392919081815260200183836020028082843760009201919091525050604080516020808902828101820190935288825290935088925087918291850190849080828437600092019190915250869250610efb915050565b5050505050565b6060610b2e82611007565b6000610b38610e9a565b90506000815111610b5857604051806020016040528060008152506107fd565b80610b628461102c565b604051602001610b73929190612442565b6040516020818303038152906040529392505050565b610b91610d68565b60cb5415801590610ba3575060cb5442115b15610bc15760405163624b779560e01b815260040160405180910390fd5b610bcd848484846110bf565b50505050565b6108cd83838360005b610bcd848484846112a2565b610bf0610d68565b6001600160a01b038116610c555760405162461bcd60e51b815260206004820152602660248201527f4f776e61626c653a206e6577206f776e657220697320746865207a65726f206160448201526564647265737360d01b606482015260840161058d565b610c5e81610ea9565b50565b6001600160a01b03163b151590565b600054610100900460ff1615808015610c905750600054600160ff909116105b80610caa5750303b158015610caa575060005460ff166001145b610cc65760405162461bcd60e51b815260040161058d906123f4565b6000805460ff191660011790558015610ce9576000805461ff0019166101001790555b610cf383836112f3565b610887611328565b60006001600160e01b031982166380ac58cd60e01b1480610d2c57506001600160e01b03198216635b5e139f60e01b145b806104ce57506301ffc9a760e01b6001600160e01b03198316146104ce565b6000908152606760205260409020546001600160a01b0316151590565b6097546001600160a01b03163314610a215760405162461bcd60e51b815260206004820181905260248201527f4f776e61626c653a2063616c6c6572206973206e6f7420746865206f776e6572604482015260640161058d565b600080610dd0858585611357565b8051909150610ddf33826113f7565b81602001516001600160a01b0316817f1e98ed4919fa421d4b871082794f2c63228dd0b5efb584e1a6131de3a7d26cb260405160405180910390a395945050505050565b6040517f19457468657265756d205369676e6564204d6573736167653a0a3332000000006020820152603c8101829052600090605c01604051602081830303815290604052805190602001209050919050565b6000806000610e858585611564565b91509150610e92816115a9565b509392505050565b606060cd80546104e390612383565b609780546001600160a01b038381166001600160a01b0319831681179093556040519116919082907f8be0079c531659141344cd1fd0a4f28419497f9722a3daafe3b4186f6b6457e090600090a35050565b815183518114610f1e5760405163512509d360e11b815260040160405180910390fd5b60005b81811015610b1c576000858281518110610f3d57610f3d612471565b602002602001015190506000858381518110610f5b57610f5b612471565b60200260200101519050848015610f765750610f7681610d4b565b15610f9457604051633fc613e760e01b815260040160405180910390fd5b604080516060810182529182526001600160a01b0392831660208084018281526001858501818152600094855260c99093529390922093518455905192909101805491511515600160a01b026001600160a81b0319909216929093169190911717905561100081612487565b9050610f21565b61101081610d4b565b610c5e5760405162461bcd60e51b815260040161058d906123bd565b60606000611039836116f3565b600101905060008167ffffffffffffffff81111561105957611059611f69565b6040519080825280601f01601f191660200182016040528015611083576020820181803683370190505b5090508181016020015b600019016f181899199a1a9b1b9c1cb0b131b232b360811b600a86061a8153600a850494508461108d57509392505050565b8281146110df5760405163512509d360e11b815260040160405180910390fd5b60005b83811015610b1c5760008585838181106110fe576110fe612471565b90506020020160208101906111139190611e5a565b6001600160a01b03818116600090815260c9602090815260409182902082516060810184528154815260019091015493841691810191909152600160a01b90920460ff161515908201819052919250906111805760405163794ea60960e01b815260040160405180910390fd5b600085858581811061119457611194612471565b90506020020160208101906111a99190611e5a565b8251604080516060810182528281526001600160a01b0380851660208084018281526001858701818152600094855260c99093529590922093518455905192909301805493511515600160a01b026001600160a81b0319909416929091169190911791909117905590915061121d81610d4b565b1561126457816001600160a01b0316846001600160a01b0316827fcd66beec785ca42d0623b531cba30cb24eacae50d76d9301b6945341cbd5856560405160405180910390a45b5050506001600160a01b0316600090815260c96020526040812090815560010180546001600160a81b031916905561129b81612487565b90506110e2565b60006112af858585611357565b51905081156112e0576112db6112c4826108e6565b3383604051806020016040528060008152506117cb565b610b1c565b610b1c6112ec826108e6565b33836117fe565b600054610100900460ff1661131a5760405162461bcd60e51b815260040161058d906124ae565b6113248282611962565b5050565b600054610100900460ff1661134f5760405162461bcd60e51b815260040161058d906124ae565b610a216119b0565b604080516060810182526000808252602082018190529181018290529061137f8585856119e0565b6001600160a01b03818116600090815260c9602090815260409182902082516060810184528154815260019091015493841691810191909152600160a01b90920460ff1615801591830191909152919250906113de5791506107fd9050565b604051638baa579f60e01b815260040160405180910390fd5b6001600160a01b03821661144d5760405162461bcd60e51b815260206004820181905260248201527f4552433732313a206d696e7420746f20746865207a65726f2061646472657373604482015260640161058d565b61145681610d4b565b156114a35760405162461bcd60e51b815260206004820152601c60248201527f4552433732313a20746f6b656e20616c7265616479206d696e74656400000000604482015260640161058d565b6114ac81610d4b565b156114f95760405162461bcd60e51b815260206004820152601c60248201527f4552433732313a20746f6b656e20616c7265616479206d696e74656400000000604482015260640161058d565b6001600160a01b038216600081815260686020908152604080832080546001019055848352606790915280822080546001600160a01b0319168417905551839291907fddf252ad1be2c89b69c2b068fc378daa952ba7f163c4a11628f55a4df523b3ef908290a45050565b600080825160410361159a5760208301516040840151606085015160001a61158e87828585611ab4565b945094505050506115a2565b506000905060025b9250929050565b60008160048111156115bd576115bd6124f9565b036115c55750565b60018160048111156115d9576115d96124f9565b036116265760405162461bcd60e51b815260206004820152601860248201527f45434453413a20696e76616c6964207369676e61747572650000000000000000604482015260640161058d565b600281600481111561163a5761163a6124f9565b036116875760405162461bcd60e51b815260206004820152601f60248201527f45434453413a20696e76616c6964207369676e6174757265206c656e67746800604482015260640161058d565b600381600481111561169b5761169b6124f9565b03610c5e5760405162461bcd60e51b815260206004820152602260248201527f45434453413a20696e76616c6964207369676e6174757265202773272076616c604482015261756560f01b606482015260840161058d565b60008072184f03e93ff9f4daa797ed6e38ed64bf6a1f0160401b83106117325772184f03e93ff9f4daa797ed6e38ed64bf6a1f0160401b830492506040015b6d04ee2d6d415b85acef8100000000831061175e576d04ee2d6d415b85acef8100000000830492506020015b662386f26fc10000831061177c57662386f26fc10000830492506010015b6305f5e1008310611794576305f5e100830492506008015b61271083106117a857612710830492506004015b606483106117ba576064830492506002015b600a83106104ce5760010192915050565b6117d68484846117fe565b6117e284848484611b78565b610bcd5760405162461bcd60e51b815260040161058d9061250f565b826001600160a01b0316611811826108e6565b6001600160a01b0316146118375760405162461bcd60e51b815260040161058d90612561565b6001600160a01b0382166118995760405162461bcd60e51b8152602060048201526024808201527f4552433732313a207472616e7366657220746f20746865207a65726f206164646044820152637265737360e01b606482015260840161058d565b826001600160a01b03166118ac826108e6565b6001600160a01b0316146118d25760405162461bcd60e51b815260040161058d90612561565b600081815260696020908152604080832080546001600160a01b03199081169091556001600160a01b0387811680865260688552838620805460001901905590871680865283862080546001019055868652606790945282852080549092168417909155905184937fddf252ad1be2c89b69c2b068fc378daa952ba7f163c4a11628f55a4df523b3ef91a4505050565b600054610100900460ff166119895760405162461bcd60e51b815260040161058d906124ae565b815161199c906065906020850190611cfe565b5080516108cd906066906020840190611cfe565b600054610100900460ff166119d75760405162461bcd60e51b815260040161058d906124ae565b610a2133610ea9565b6000814311611a0257604051631391e11b60e21b815260040160405180910390fd5b60fa8243031115611a26576040516351cc51c760e11b815260040160405180910390fd5b6040516bffffffffffffffffffffffff193360601b16602082015282406034820181905290600090611a709060540160405160208183030381529060405280519060200120610e23565b90506107f886868080601f0160208091040260200160405190810160405280939291908181526020018383808284376000920191909152508593925050610e769050565b6000807f7fffffffffffffffffffffffffffffff5d576e7357a4501ddfe92f46681b20a0831115611aeb5750600090506003611b6f565b6040805160008082526020820180845289905260ff881692820192909252606081018690526080810185905260019060a0016020604051602081039080840390855afa158015611b3f573d6000803e3d6000fd5b5050604051601f1901519150506001600160a01b038116611b6857600060019250925050611b6f565b9150600090505b94509492505050565b60006001600160a01b0384163b15611c6e57604051630a85bd0160e11b81526001600160a01b0385169063150b7a0290611bbc9033908990889088906004016125a6565b6020604051808303816000875af1925050508015611bf7575060408051601f3d908101601f19168201909252611bf4918101906125e3565b60015b611c54573d808015611c25576040519150601f19603f3d011682016040523d82523d6000602084013e611c2a565b606091505b508051600003611c4c5760405162461bcd60e51b815260040161058d9061250f565b805181602001fd5b6001600160e01b031916630a85bd0160e11b149050611c72565b5060015b949350505050565b828054611c8690612383565b90600052602060002090601f016020900481019282611ca85760008555611cee565b82601f10611cc15782800160ff19823516178555611cee565b82800160010185558215611cee579182015b82811115611cee578235825591602001919060010190611cd3565b50611cfa929150611d72565b5090565b828054611d0a90612383565b90600052602060002090601f016020900481019282611d2c5760008555611cee565b82601f10611d4557805160ff1916838001178555611cee565b82800160010185558215611cee579182015b82811115611cee578251825591602001919060010190611d57565b5b80821115611cfa5760008155600101611d73565b6001600160e01b031981168114610c5e57600080fd5b600060208284031215611daf57600080fd5b81356107fd81611d87565b60005b83811015611dd5578181015183820152602001611dbd565b83811115610bcd5750506000910152565b60008151808452611dfe816020860160208601611dba565b601f01601f19169290920160200192915050565b6020815260006107fd6020830184611de6565b600060208284031215611e3757600080fd5b5035919050565b80356001600160a01b0381168114611e5557600080fd5b919050565b600060208284031215611e6c57600080fd5b6107fd82611e3e565b60008060408385031215611e8857600080fd5b611e9183611e3e565b946020939093013593505050565b600080600060608486031215611eb457600080fd5b611ebd84611e3e565b9250611ecb60208501611e3e565b9150604084013590509250925092565b60008083601f840112611eed57600080fd5b50813567ffffffffffffffff811115611f0557600080fd5b6020830191508360208285010111156115a257600080fd5b600080600060408486031215611f3257600080fd5b833567ffffffffffffffff811115611f4957600080fd5b611f5586828701611edb565b909790965060209590950135949350505050565b634e487b7160e01b600052604160045260246000fd5b600082601f830112611f9057600080fd5b813567ffffffffffffffff80821115611fab57611fab611f69565b604051601f8301601f19908116603f01168101908282118183101715611fd357611fd3611f69565b81604052838152866020858801011115611fec57600080fd5b836020870160208301376000602085830101528094505050505092915050565b60008060006060848603121561202157600080fd5b83359250602084013567ffffffffffffffff8082111561204057600080fd5b61204c87838801611f7f565b9350604086013591508082111561206257600080fd5b5061206f86828701611f7f565b9150509250925092565b6000806040838503121561208c57600080fd5b823567ffffffffffffffff808211156120a457600080fd5b6120b086838701611f7f565b935060208501359150808211156120c657600080fd5b506120d385828601611f7f565b9150509250929050565b600080602083850312156120f057600080fd5b823567ffffffffffffffff81111561210757600080fd5b61211385828601611edb565b90969095509350505050565b80358015158114611e5557600080fd5b6000806040838503121561214257600080fd5b61214b83611e3e565b91506121596020840161211f565b90509250929050565b6000806000806080858703121561217857600080fd5b61218185611e3e565b935061218f60208601611e3e565b925060408501359150606085013567ffffffffffffffff8111156121b257600080fd5b6121be87828801611f7f565b91505092959194509250565b60008083601f8401126121dc57600080fd5b50813567ffffffffffffffff8111156121f457600080fd5b6020830191508360208260051b85010111156115a257600080fd5b60008060008060006060868803121561222757600080fd5b853567ffffffffffffffff8082111561223f57600080fd5b61224b89838a016121ca565b9097509550602088013591508082111561226457600080fd5b50612271888289016121ca565b909450925061228490506040870161211f565b90509295509295909350565b600080600080604085870312156122a657600080fd5b843567ffffffffffffffff808211156122be57600080fd5b6122ca888389016121ca565b909650945060208701359150808211156122e357600080fd5b506122f0878288016121ca565b95989497509550505050565b6000806000806060858703121561231257600080fd5b843567ffffffffffffffff81111561232957600080fd5b61233587828801611edb565b9095509350506020850135915061234e6040860161211f565b905092959194509250565b6000806040838503121561236c57600080fd5b61237583611e3e565b915061215960208401611e3e565b600181811c9082168061239757607f821691505b6020821081036123b757634e487b7160e01b600052602260045260246000fd5b50919050565b60208082526018908201527f4552433732313a20696e76616c696420746f6b656e2049440000000000000000604082015260600190565b6020808252602e908201527f496e697469616c697a61626c653a20636f6e747261637420697320616c72656160408201526d191e481a5b9a5d1a585b1a5e995960921b606082015260800190565b60008351612454818460208801611dba565b835190830190612468818360208801611dba565b01949350505050565b634e487b7160e01b600052603260045260246000fd5b6000600182016124a757634e487b7160e01b600052601160045260246000fd5b5060010190565b6020808252602b908201527f496e697469616c697a61626c653a20636f6e7472616374206973206e6f74206960408201526a6e697469616c697a696e6760a81b606082015260800190565b634e487b7160e01b600052602160045260246000fd5b60208082526032908201527f4552433732313a207472616e7366657220746f206e6f6e20455243373231526560408201527131b2b4bb32b91034b6b83632b6b2b73a32b960711b606082015260800190565b60208082526025908201527f4552433732313a207472616e736665722066726f6d20696e636f72726563742060408201526437bbb732b960d91b606082015260800190565b6001600160a01b03858116825284166020820152604081018390526080606082018190526000906125d990830184611de6565b9695505050505050565b6000602082840312156125f557600080fd5b81516107fd81611d8756fea2646970667358221220431c7ccf112fda82d4f6fd9fe8b256323d4e620f8237946ebfadb973f7970e5c64736f6c634300080d0033496e697469616c697a61626c653a20636f6e747261637420697320616c726561496e697469616c697a61626c653a20636f6e7472616374206973206e6f742069",
  "devdoc": {
    "kind": "dev",
    "methods": {
      "approve(address,uint256)": {
        "details": "See {IERC721-approve}."
      },
      "balanceOf(address)": {
        "details": "See {IERC721-balanceOf}."
      },
      "contractType()": {
        "details": "Returns the type of the contract."
      },
      "contractVersion()": {
        "details": "Returns the version of the contract."
      },
      "getApproved(uint256)": {
        "details": "See {IERC721-getApproved}."
      },
      "isApprovedForAll(address,address)": {
        "details": "See {IERC721-isApprovedForAll}."
      },
      "isChipSignatureForToken(uint256,bytes,bytes)": {
        "details": "Throws if tokenId does not exist in the collection.",
        "params": {
          "payload": "Arbitrary data that is signed by the chip to produce the signature param.",
          "signature": "Chip's signature of the passed-in payload.",
          "tokenId": "The token id."
        },
        "returns": {
          "_0": "Whether the signature of the payload was signed by the chip linked to the token id."
        }
      },
      "name()": {
        "details": "See {IERC721Metadata-name}."
      },
      "owner()": {
        "details": "Returns the address of the current owner."
      },
      "ownerOf(uint256)": {
        "details": "See {IERC721-ownerOf}."
      },
      "renounceOwnership()": {
        "details": "Leaves the contract without owner. It will not be possible to call `onlyOwner` functions. Can only be called by the current owner. NOTE: Renouncing ownership will leave the contract without an owner, thereby disabling any functionality that is only available to the owner."
      },
      "safeTransferFrom(address,address,uint256)": {
        "details": "See {IERC721-safeTransferFrom}."
      },
      "safeTransferFrom(address,address,uint256,bytes)": {
        "details": "See {IERC721-safeTransferFrom}."
      },
      "setApprovalForAll(address,bool)": {
        "details": "See {IERC721-setApprovalForAll}."
      },
      "supportsInterface(bytes4)": {
        "details": "See {IERC165-supportsInterface}."
      },
      "symbol()": {
        "details": "See {IERC721Metadata-symbol}."
      },
      "tokenIdFor(address)": {
        "details": "Throws if there is no existing token for the chip in the collection.",
        "params": {
          "chipAddress": "The address for the chip embedded in the physical item (computed from the chip's public key)."
        },
        "returns": {
          "_0": "The token id for the passed in chip address."
        }
      },
      "tokenURI(uint256)": {
        "details": "See {IERC721Metadata-tokenURI}."
      },
      "transferFrom(address,address,uint256)": {
        "details": "See {IERC721-transferFrom}."
      },
      "transferOwnership(address)": {
        "details": "Transfers ownership of the contract to a new account (`newOwner`). Can only be called by the current owner."
      },
      "transferTokenWithChip(bytes,uint256,bool)": {
        "details": "The implementation should check that block number be reasonably recent to avoid replay attacks of stale signatures. The implementation should also verify that the address signed in the signature matches msgSender. If the address recovered from the signature matches a chip address that's bound to an existing token, the token should be transferred to msgSender. If there is no existing token linked to the chip, the function should error.",
        "params": {
          "blockNumberUsedInSig": "The block number linked to the blockhash signed in signatureFromChip. Should be a recent block number.",
          "signatureFromChip": "An EIP-191 signature of (msgSender, blockhash), where blockhash is the block hash for blockNumberUsedInSig.",
          "useSafeTransferFrom": "Whether EIP-721's safeTransferFrom should be used in the implementation, instead of transferFrom."
        }
      }
    },
    "version": 1
  },
  "userdoc": {
    "events": {
      "PBTChipRemapping(uint256,address,address)": {
        "notice": "Emitted when a token is mapped to a different chip. Chip replacements may be useful in certain scenarios (e.g. chip defect)."
      },
      "PBTMint(uint256,address)": {
        "notice": "Emitted when a token is minted."
      }
    },
    "kind": "user",
    "methods": {
      "isChipSignatureForToken(uint256,bytes,bytes)": {
        "notice": "Returns true if the chip for the specified token id is the signer of the signature of the payload."
      },
      "tokenIdFor(address)": {
        "notice": "Returns the token id for a given chip address."
      },
      "transferTokenWithChip(bytes,uint256)": {
        "notice": "Calls transferTokenWithChip as defined above, with useSafeTransferFrom set to false."
      },
      "transferTokenWithChip(bytes,uint256,bool)": {
        "notice": "Transfers the token into the message sender's wallet."
      }
    },
    "version": 1
  },
  "storageLayout": {
    "storage": [
      {
        "astId": 138,
        "contract": "contracts/BellToAlango.sol:BellToAlango",
        "label": "_initialized",
        "offset": 0,
        "slot": "0",
        "type": "t_uint8"
      },
      {
        "astId": 141,
        "contract": "contracts/BellToAlango.sol:BellToAlango",
        "label": "_initializing",
        "offset": 1,
        "slot": "0",
        "type": "t_bool"
      },
      {
        "astId": 1784,
        "contract": "contracts/BellToAlango.sol:BellToAlango",
        "label": "__gap",
        "offset": 0,
        "slot": "1",
        "type": "t_array(t_uint256)50_storage"
      },
      {
        "astId": 2057,
        "contract": "contracts/BellToAlango.sol:BellToAlango",
        "label": "__gap",
        "offset": 0,
        "slot": "51",
        "type": "t_array(t_uint256)50_storage"
      },
      {
        "astId": 329,
        "contract": "contracts/BellToAlango.sol:BellToAlango",
        "label": "_name",
        "offset": 0,
        "slot": "101",
        "type": "t_string_storage"
      },
      {
        "astId": 331,
        "contract": "contracts/BellToAlango.sol:BellToAlango",
        "label": "_symbol",
        "offset": 0,
        "slot": "102",
        "type": "t_string_storage"
      },
      {
        "astId": 335,
        "contract": "contracts/BellToAlango.sol:BellToAlango",
        "label": "_owners",
        "offset": 0,
        "slot": "103",
        "type": "t_mapping(t_uint256,t_address)"
      },
      {
        "astId": 339,
        "contract": "contracts/BellToAlango.sol:BellToAlango",
        "label": "_balances",
        "offset": 0,
        "slot": "104",
        "type": "t_mapping(t_address,t_uint256)"
      },
      {
        "astId": 343,
        "contract": "contracts/BellToAlango.sol:BellToAlango",
        "label": "_tokenApprovals",
        "offset": 0,
        "slot": "105",
        "type": "t_mapping(t_uint256,t_address)"
      },
      {
        "astId": 349,
        "contract": "contracts/BellToAlango.sol:BellToAlango",
        "label": "_operatorApprovals",
        "offset": 0,
        "slot": "106",
        "type": "t_mapping(t_address,t_mapping(t_address,t_bool))"
      },
      {
        "astId": 1251,
        "contract": "contracts/BellToAlango.sol:BellToAlango",
        "label": "__gap",
        "offset": 0,
        "slot": "107",
        "type": "t_array(t_uint256)44_storage"
      },
      {
        "astId": 10,
        "contract": "contracts/BellToAlango.sol:BellToAlango",
        "label": "_owner",
        "offset": 0,
        "slot": "151",
        "type": "t_address"
      },
      {
        "astId": 130,
        "contract": "contracts/BellToAlango.sol:BellToAlango",
        "label": "__gap",
        "offset": 0,
        "slot": "152",
        "type": "t_array(t_uint256)49_storage"
      },
      {
        "astId": 4855,
        "contract": "contracts/BellToAlango.sol:BellToAlango",
        "label": "_tokenDatas",
        "offset": 0,
        "slot": "201",
        "type": "t_mapping(t_address,t_struct(TokenData)4849_storage)"
      },
      {
        "astId": 4460,
        "contract": "contracts/BellToAlango.sol:BellToAlango",
        "label": "supply",
        "offset": 0,
        "slot": "202",
        "type": "t_uint256"
      },
      {
        "astId": 4462,
        "contract": "contracts/BellToAlango.sol:BellToAlango",
        "label": "changeDeadline",
        "offset": 0,
        "slot": "203",
        "type": "t_uint256"
      },
      {
        "astId": 4464,
        "contract": "contracts/BellToAlango.sol:BellToAlango",
        "label": "canMint",
        "offset": 0,
        "slot": "204",
        "type": "t_bool"
      },
      {
        "astId": 4466,
        "contract": "contracts/BellToAlango.sol:BellToAlango",
        "label": "_baseTokenURI",
        "offset": 0,
        "slot": "205",
        "type": "t_string_storage"
      }
    ],
    "types": {
      "t_address": {
        "encoding": "inplace",
        "label": "address",
        "numberOfBytes": "20"
      },
      "t_array(t_uint256)44_storage": {
        "base": "t_uint256",
        "encoding": "inplace",
        "label": "uint256[44]",
        "numberOfBytes": "1408"
      },
      "t_array(t_uint256)49_storage": {
        "base": "t_uint256",
        "encoding": "inplace",
        "label": "uint256[49]",
        "numberOfBytes": "1568"
      },
      "t_array(t_uint256)50_storage": {
        "base": "t_uint256",
        "encoding": "inplace",
        "label": "uint256[50]",
        "numberOfBytes": "1600"
      },
      "t_bool": {
        "encoding": "inplace",
        "label": "bool",
        "numberOfBytes": "1"
      },
      "t_mapping(t_address,t_bool)": {
        "encoding": "mapping",
        "key": "t_address",
        "label": "mapping(address => bool)",
        "numberOfBytes": "32",
        "value": "t_bool"
      },
      "t_mapping(t_address,t_mapping(t_address,t_bool))": {
        "encoding": "mapping",
        "key": "t_address",
        "label": "mapping(address => mapping(address => bool))",
        "numberOfBytes": "32",
        "value": "t_mapping(t_address,t_bool)"
      },
      "t_mapping(t_address,t_struct(TokenData)4849_storage)": {
        "encoding": "mapping",
        "key": "t_address",
        "label": "mapping(address => struct PBTSimple.TokenData)",
        "numberOfBytes": "32",
        "value": "t_struct(TokenData)4849_storage"
      },
      "t_mapping(t_address,t_uint256)": {
        "encoding": "mapping",
        "key": "t_address",
        "label": "mapping(address => uint256)",
        "numberOfBytes": "32",
        "value": "t_uint256"
      },
      "t_mapping(t_uint256,t_address)": {
        "encoding": "mapping",
        "key": "t_uint256",
        "label": "mapping(uint256 => address)",
        "numberOfBytes": "32",
        "value": "t_address"
      },
      "t_string_storage": {
        "encoding": "bytes",
        "label": "string",
        "numberOfBytes": "32"
      },
      "t_struct(TokenData)4849_storage": {
        "encoding": "inplace",
        "label": "struct PBTSimple.TokenData",
        "members": [
          {
            "astId": 4844,
            "contract": "contracts/BellToAlango.sol:BellToAlango",
            "label": "tokenId",
            "offset": 0,
            "slot": "0",
            "type": "t_uint256"
          },
          {
            "astId": 4846,
            "contract": "contracts/BellToAlango.sol:BellToAlango",
            "label": "chipAddress",
            "offset": 0,
            "slot": "1",
            "type": "t_address"
          },
          {
            "astId": 4848,
            "contract": "contracts/BellToAlango.sol:BellToAlango",
            "label": "set",
            "offset": 20,
            "slot": "1",
            "type": "t_bool"
          }
        ],
        "numberOfBytes": "64"
      },
      "t_uint256": {
        "encoding": "inplace",
        "label": "uint256",
        "numberOfBytes": "32"
      },
      "t_uint8": {
        "encoding": "inplace",
        "label": "uint8",
        "numberOfBytes": "1"
      }
    }
  }
}